{"abi":[{"inputs":[{"internalType":"uint256","name":"amountLinkToSupply","type":"uint256"},{"internalType":"uint256","name":"amountUsdcToSupply","type":"uint256"}],"name":"initiatePool","outputs":[],"stateMutability":"nonpayable","type":"function"},{"inputs":[{"internalType":"uint256","name":"amountLpTokens","type":"uint256"}],"name":"supply","outputs":[],"stateMutability":"nonpayable","type":"function"},{"inputs":[{"internalType":"uint256","name":"quantitySoldToken","type":"uint256"},{"internalType":"uint256","name":"minAmountPurchasedToken","type":"uint256"},{"internalType":"enum SimpleSwap.Tokens","name":"tokenForSale","type":"uint8"}],"name":"swap","outputs":[],"stateMutability":"nonpayable","type":"function"},{"inputs":[],"name":"totalAvailableLink","outputs":[{"internalType":"uint256","name":"","type":"uint256"}],"stateMutability":"view","type":"function"},{"inputs":[],"name":"totalAvailableUSDC","outputs":[{"internalType":"uint256","name":"","type":"uint256"}],"stateMutability":"view","type":"function"},{"inputs":[{"internalType":"uint256","name":"amountLpTokens","type":"uint256"}],"name":"withdraw","outputs":[],"stateMutability":"nonpayable","type":"function"}],"bytecode":"6080604052600080546001600160a01b031990811673a36085f69e2889c224210f603d836748e7dc00881782556001805490911673b7a4f3e9097c08da09517b5ab877f7a917224ede179055600281905560038190556004556005805460ff1916905534801561006e57600080fd5b50610e0a8061007e6000396000f3fe608060405234801561001057600080fd5b50600436106100625760003560e01c80632e1a7d4d14610067578063354030231461007c5780635c36d25e1461008f578063618e552c146100a2578063b2e411c2146100c0578063ce49ea9a146100c8575b600080fd5b61007a610075366004610a4e565b6100db565b005b61007a61008a366004610a4e565b61033d565b61007a61009d366004610a87565b6104fb565b6100aa610727565b6040516100b79190610d47565b60405180910390f35b6100aa61072d565b61007a6100d6366004610a66565b610733565b60055460ff166101065760405162461bcd60e51b81526004016100fd90610c28565b60405180910390fd5b600081116101265760405162461bcd60e51b81526004016100fd90610c6b565b336000908152600660205260409020548111156101555760405162461bcd60e51b81526004016100fd90610bf3565b600080610160610904565b9092509050600061017e620f4240610178858761094b565b9061095e565b90506000610193620f4240610178858861094b565b6002549091506101a3908361096a565b6002556003546101b3908261096a565b6003556004546101c3908661096a565b600455336000908152600660205260409020546101e0908661096a565b336000818152600660205260408082209390935554600154925163a9059cbb60e01b81526001600160a01b039182169390911691839163a9059cbb9161022a918890600401610ae6565b602060405180830381600087803b15801561024457600080fd5b505af1158015610258573d6000803e3d6000fd5b505050506040513d601f19601f8201168201806040525081019061027c9190610a2e565b6102985760405162461bcd60e51b81526004016100fd90610bbc565b60405163a9059cbb60e01b81526001600160a01b0382169063a9059cbb906102c69033908790600401610ae6565b602060405180830381600087803b1580156102e057600080fd5b505af11580156102f4573d6000803e3d6000fd5b505050506040513d601f19601f820116820180604052508101906103189190610a2e565b6103345760405162461bcd60e51b81526004016100fd90610b85565b50505050505050565b60055460ff1661035f5760405162461bcd60e51b81526004016100fd90610c28565b6000811161037f5760405162461bcd60e51b81526004016100fd90610b36565b60008061038a610904565b600080546001549395509193506001600160a01b0391821692909116906103b8620f4240610178878961094b565b905060006103cd620f4240610178878a61094b565b6002549091506103dd9083610976565b6002556003546103ed9082610976565b6003556004546103fd9088610976565b6004553360009081526006602052604090205461041a9088610976565b33600081815260066020526040908190209290925590516323b872dd60e01b81526001600160a01b038616916323b872dd9161045d919030908790600401610ac2565b602060405180830381600087803b15801561047757600080fd5b505af115801561048b573d6000803e3d6000fd5b505050506040513d601f19601f820116820180604052508101906104af9190610a2e565b6104cb5760405162461bcd60e51b81526004016100fd90610bbc565b6040516323b872dd60e01b81526001600160a01b038416906323b872dd906102c690339030908690600401610ac2565b60055460ff1661051d5760405162461bcd60e51b81526004016100fd90610c28565b60006105298483610982565b90508281101561054b5760405162461bcd60e51b81526004016100fd90610cf2565b6000808084600181111561056f57634e487b7160e01b600052602160045260246000fd5b14156105af576002546105829087610976565b600255600354610592908461096a565b60035550506000546001546001600160a01b0391821691166105e5565b6002546105bc908461096a565b6002556003546105cc9087610976565b60035550506001546000546001600160a01b0391821691165b60405163a9059cbb60e01b81526001600160a01b0382169063a9059cbb906106139033908790600401610ae6565b602060405180830381600087803b15801561062d57600080fd5b505af1158015610641573d6000803e3d6000fd5b505050506040513d601f19601f820116820180604052508101906106659190610a2e565b6106815760405162461bcd60e51b81526004016100fd90610cbb565b6040516323b872dd60e01b81526001600160a01b038316906323b872dd906106b190339030908b90600401610ac2565b602060405180830381600087803b1580156106cb57600080fd5b505af11580156106df573d6000803e3d6000fd5b505050506040513d601f19601f820116820180604052508101906107039190610a2e565b61071f5760405162461bcd60e51b81526004016100fd90610cbb565b505050505050565b60025481565b60035481565b60055460ff16156107565760405162461bcd60e51b81526004016100fd90610aff565b6005805460ff1916600190811790915560005490546040516323b872dd60e01b81526001600160a01b0392831692919091169082906323b872dd906107a390339030908990600401610ac2565b602060405180830381600087803b1580156107bd57600080fd5b505af11580156107d1573d6000803e3d6000fd5b505050506040513d601f19601f820116820180604052508101906107f59190610a2e565b6108115760405162461bcd60e51b81526004016100fd90610bbc565b6040516323b872dd60e01b81526001600160a01b038216906323b872dd9061084190339030908890600401610ac2565b602060405180830381600087803b15801561085b57600080fd5b505af115801561086f573d6000803e3d6000fd5b505050506040513d601f19601f820116820180604052508101906108939190610a2e565b6108af5760405162461bcd60e51b81526004016100fd90610b85565b6002546108bc9085610976565b6002556003546108cc9084610976565b6003556004839055336000908152600660205260409020546108ee9084610976565b3360009081526006602052604090205550505050565b600080610925600454610178620f424060025461094b90919063ffffffff16565b610943600454610178620f424060035461094b90919063ffffffff16565b915091509091565b60006109578284610d88565b9392505050565b60006109578284610d68565b60006109578284610da7565b60006109578284610d50565b600080808360018111156109a657634e487b7160e01b600052602160045260246000fd5b146109b3576002546109b7565b6003545b90506000808460018111156109dc57634e487b7160e01b600052602160045260246000fd5b146109e9576003546109ed565b6002545b90506000600254600354610a019190610d88565b90506000610a23610a1c610a158986610d50565b849061095e565b859061096a565b979650505050505050565b600060208284031215610a3f578081fd5b81518015158114610957578182fd5b600060208284031215610a5f578081fd5b5035919050565b60008060408385031215610a78578081fd5b50508035926020909101359150565b600080600060608486031215610a9b578081fd5b8335925060208401359150604084013560028110610ab7578182fd5b809150509250925092565b6001600160a01b039384168152919092166020820152604081019190915260600190565b6001600160a01b03929092168252602082015260400190565b6020808252601e908201527f54686520706f6f6c2077617320616c726561647920696e697469617465640000604082015260600190565b6020808252602f908201527f54686520616d6f756e74206f6620737570706c696564206c7020746f6b656e7360408201526e1039b437bab632103132901f10181760891b606082015260800190565b60208082526018908201527f5553444320616d6f756e7420756e617661696c61626c652e0000000000000000604082015260600190565b60208082526018908201527f4c696e6b20616d6f756e7420756e617661696c61626c652e0000000000000000604082015260600190565b6020808252818101527f596f7520646f6e2774206861766520656e6f756768204c5020746f6b656e732e604082015260600190565b60208082526023908201527f54686520706f6f6c2073686f756c6420626520696e697469617465642066697260408201526239ba1760e91b606082015260800190565b60208082526030908201527f54686520616d6f756e74206f6620726571756573746564206c7020746f6b656e60408201526f399039b437bab632103132901f10181760811b606082015260800190565b60208082526019908201527f546f6b656e20616d6f756e7420756e617661696c61626c652e00000000000000604082015260600190565b60208082526035908201527f54686520616d6f756e74206f662070757263686173656420746f6b656e206973604082015274103637bbb2b9103a3430b7103932b8bab4b932b21760591b606082015260800190565b90815260200190565b60008219821115610d6357610d63610dbe565b500190565b600082610d8357634e487b7160e01b81526012600452602481fd5b500490565b6000816000190483118215151615610da257610da2610dbe565b500290565b600082821015610db957610db9610dbe565b500390565b634e487b7160e01b600052601160045260246000fdfea2646970667358221220a2904e70d3afc40ee885c4ea20bed64406ebaa45306e863f2bdcbbb984ccc79164736f6c63430008000033","bytecodeSha1":"7e8a64dfc5564b9d9b70f99546e65271b8f01dc0","compiler":{"evm_version":"istanbul","optimizer":{"enabled":true,"runs":200},"version":"0.8.0+commit.c7dfd78e"},"contractName":"SimpleSwap","language":"Solidity","natspec":{"kind":"dev","methods":{},"version":1},"opcodes":"PUSH1 0x80 PUSH1 0x40 MSTORE CALLVALUE DUP1 ISZERO PUSH2 0x10 JUMPI PUSH1 0x0 DUP1 REVERT JUMPDEST POP PUSH1 0x4 CALLDATASIZE LT PUSH2 0x62 JUMPI PUSH1 0x0 CALLDATALOAD PUSH1 0xE0 SHR DUP1 PUSH4 0x2E1A7D4D EQ PUSH2 0x67 JUMPI DUP1 PUSH4 0x35403023 EQ PUSH2 0x7C JUMPI DUP1 PUSH4 0x5C36D25E EQ PUSH2 0x8F JUMPI DUP1 PUSH4 0x618E552C EQ PUSH2 0xA2 JUMPI DUP1 PUSH4 0xB2E411C2 EQ PUSH2 0xC0 JUMPI DUP1 PUSH4 0xCE49EA9A EQ PUSH2 0xC8 JUMPI JUMPDEST PUSH1 0x0 DUP1 REVERT JUMPDEST PUSH2 0x7A PUSH2 0x75 CALLDATASIZE PUSH1 0x4 PUSH2 0xA4E JUMP JUMPDEST PUSH2 0xDB JUMP JUMPDEST STOP JUMPDEST PUSH2 0x7A PUSH2 0x8A CALLDATASIZE PUSH1 0x4 PUSH2 0xA4E JUMP JUMPDEST PUSH2 0x33D JUMP JUMPDEST PUSH2 0x7A PUSH2 0x9D CALLDATASIZE PUSH1 0x4 PUSH2 0xA87 JUMP JUMPDEST PUSH2 0x4FB JUMP JUMPDEST PUSH2 0xAA PUSH2 0x727 JUMP JUMPDEST PUSH1 0x40 MLOAD PUSH2 0xB7 SWAP2 SWAP1 PUSH2 0xD47 JUMP JUMPDEST PUSH1 0x40 MLOAD DUP1 SWAP2 SUB SWAP1 RETURN JUMPDEST PUSH2 0xAA PUSH2 0x72D JUMP JUMPDEST PUSH2 0x7A PUSH2 0xD6 CALLDATASIZE PUSH1 0x4 PUSH2 0xA66 JUMP JUMPDEST PUSH2 0x733 JUMP JUMPDEST PUSH1 0x5 SLOAD PUSH1 0xFF AND PUSH2 0x106 JUMPI PUSH1 0x40 MLOAD PUSH3 0x461BCD PUSH1 0xE5 SHL DUP2 MSTORE PUSH1 0x4 ADD PUSH2 0xFD SWAP1 PUSH2 0xC28 JUMP JUMPDEST PUSH1 0x40 MLOAD DUP1 SWAP2 SUB SWAP1 REVERT JUMPDEST PUSH1 0x0 DUP2 GT PUSH2 0x126 JUMPI PUSH1 0x40 MLOAD PUSH3 0x461BCD PUSH1 0xE5 SHL DUP2 MSTORE PUSH1 0x4 ADD PUSH2 0xFD SWAP1 PUSH2 0xC6B JUMP JUMPDEST CALLER PUSH1 0x0 SWAP1 DUP2 MSTORE PUSH1 0x6 PUSH1 0x20 MSTORE PUSH1 0x40 SWAP1 KECCAK256 SLOAD DUP2 GT ISZERO PUSH2 0x155 JUMPI PUSH1 0x40 MLOAD PUSH3 0x461BCD PUSH1 0xE5 SHL DUP2 MSTORE PUSH1 0x4 ADD PUSH2 0xFD SWAP1 PUSH2 0xBF3 JUMP JUMPDEST PUSH1 0x0 DUP1 PUSH2 0x160 PUSH2 0x904 JUMP JUMPDEST SWAP1 SWAP3 POP SWAP1 POP PUSH1 0x0 PUSH2 0x17E PUSH3 0xF4240 PUSH2 0x178 DUP6 DUP8 PUSH2 0x94B JUMP JUMPDEST SWAP1 PUSH2 0x95E JUMP JUMPDEST SWAP1 POP PUSH1 0x0 PUSH2 0x193 PUSH3 0xF4240 PUSH2 0x178 DUP6 DUP9 PUSH2 0x94B JUMP JUMPDEST PUSH1 0x2 SLOAD SWAP1 SWAP2 POP PUSH2 0x1A3 SWAP1 DUP4 PUSH2 0x96A JUMP JUMPDEST PUSH1 0x2 SSTORE PUSH1 0x3 SLOAD PUSH2 0x1B3 SWAP1 DUP3 PUSH2 0x96A JUMP JUMPDEST PUSH1 0x3 SSTORE PUSH1 0x4 SLOAD PUSH2 0x1C3 SWAP1 DUP7 PUSH2 0x96A JUMP JUMPDEST PUSH1 0x4 SSTORE CALLER PUSH1 0x0 SWAP1 DUP2 MSTORE PUSH1 0x6 PUSH1 0x20 MSTORE PUSH1 0x40 SWAP1 KECCAK256 SLOAD PUSH2 0x1E0 SWAP1 DUP7 PUSH2 0x96A JUMP JUMPDEST CALLER PUSH1 0x0 DUP2 DUP2 MSTORE PUSH1 0x6 PUSH1 0x20 MSTORE PUSH1 0x40 DUP1 DUP3 KECCAK256 SWAP4 SWAP1 SWAP4 SSTORE SLOAD PUSH1 0x1 SLOAD SWAP3 MLOAD PUSH4 0xA9059CBB PUSH1 0xE0 SHL DUP2 MSTORE PUSH1 0x1 PUSH1 0x1 PUSH1 0xA0 SHL SUB SWAP2 DUP3 AND SWAP4 SWAP1 SWAP2 AND SWAP2 DUP4 SWAP2 PUSH4 0xA9059CBB SWAP2 PUSH2 0x22A SWAP2 DUP9 SWAP1 PUSH1 0x4 ADD PUSH2 0xAE6 JUMP JUMPDEST PUSH1 0x20 PUSH1 0x40 MLOAD DUP1 DUP4 SUB DUP2 PUSH1 0x0 DUP8 DUP1 EXTCODESIZE ISZERO DUP1 ISZERO PUSH2 0x244 JUMPI PUSH1 0x0 DUP1 REVERT JUMPDEST POP GAS CALL ISZERO DUP1 ISZERO PUSH2 0x258 JUMPI RETURNDATASIZE PUSH1 0x0 DUP1 RETURNDATACOPY RETURNDATASIZE PUSH1 0x0 REVERT JUMPDEST POP POP POP POP PUSH1 0x40 MLOAD RETURNDATASIZE PUSH1 0x1F NOT PUSH1 0x1F DUP3 ADD AND DUP3 ADD DUP1 PUSH1 0x40 MSTORE POP DUP2 ADD SWAP1 PUSH2 0x27C SWAP2 SWAP1 PUSH2 0xA2E JUMP JUMPDEST PUSH2 0x298 JUMPI PUSH1 0x40 MLOAD PUSH3 0x461BCD PUSH1 0xE5 SHL DUP2 MSTORE PUSH1 0x4 ADD PUSH2 0xFD SWAP1 PUSH2 0xBBC JUMP JUMPDEST PUSH1 0x40 MLOAD PUSH4 0xA9059CBB PUSH1 0xE0 SHL DUP2 MSTORE PUSH1 0x1 PUSH1 0x1 PUSH1 0xA0 SHL SUB DUP3 AND SWAP1 PUSH4 0xA9059CBB SWAP1 PUSH2 0x2C6 SWAP1 CALLER SWAP1 DUP8 SWAP1 PUSH1 0x4 ADD PUSH2 0xAE6 JUMP JUMPDEST PUSH1 0x20 PUSH1 0x40 MLOAD DUP1 DUP4 SUB DUP2 PUSH1 0x0 DUP8 DUP1 EXTCODESIZE ISZERO DUP1 ISZERO PUSH2 0x2E0 JUMPI PUSH1 0x0 DUP1 REVERT JUMPDEST POP GAS CALL ISZERO DUP1 ISZERO PUSH2 0x2F4 JUMPI RETURNDATASIZE PUSH1 0x0 DUP1 RETURNDATACOPY RETURNDATASIZE PUSH1 0x0 REVERT JUMPDEST POP POP POP POP PUSH1 0x40 MLOAD RETURNDATASIZE PUSH1 0x1F NOT PUSH1 0x1F DUP3 ADD AND DUP3 ADD DUP1 PUSH1 0x40 MSTORE POP DUP2 ADD SWAP1 PUSH2 0x318 SWAP2 SWAP1 PUSH2 0xA2E JUMP JUMPDEST PUSH2 0x334 JUMPI PUSH1 0x40 MLOAD PUSH3 0x461BCD PUSH1 0xE5 SHL DUP2 MSTORE PUSH1 0x4 ADD PUSH2 0xFD SWAP1 PUSH2 0xB85 JUMP JUMPDEST POP POP POP POP POP POP POP JUMP JUMPDEST PUSH1 0x5 SLOAD PUSH1 0xFF AND PUSH2 0x35F JUMPI PUSH1 0x40 MLOAD PUSH3 0x461BCD PUSH1 0xE5 SHL DUP2 MSTORE PUSH1 0x4 ADD PUSH2 0xFD SWAP1 PUSH2 0xC28 JUMP JUMPDEST PUSH1 0x0 DUP2 GT PUSH2 0x37F JUMPI PUSH1 0x40 MLOAD PUSH3 0x461BCD PUSH1 0xE5 SHL DUP2 MSTORE PUSH1 0x4 ADD PUSH2 0xFD SWAP1 PUSH2 0xB36 JUMP JUMPDEST PUSH1 0x0 DUP1 PUSH2 0x38A PUSH2 0x904 JUMP JUMPDEST PUSH1 0x0 DUP1 SLOAD PUSH1 0x1 SLOAD SWAP4 SWAP6 POP SWAP2 SWAP4 POP PUSH1 0x1 PUSH1 0x1 PUSH1 0xA0 SHL SUB SWAP2 DUP3 AND SWAP3 SWAP1 SWAP2 AND SWAP1 PUSH2 0x3B8 PUSH3 0xF4240 PUSH2 0x178 DUP8 DUP10 PUSH2 0x94B JUMP JUMPDEST SWAP1 POP PUSH1 0x0 PUSH2 0x3CD PUSH3 0xF4240 PUSH2 0x178 DUP8 DUP11 PUSH2 0x94B JUMP JUMPDEST PUSH1 0x2 SLOAD SWAP1 SWAP2 POP PUSH2 0x3DD SWAP1 DUP4 PUSH2 0x976 JUMP JUMPDEST PUSH1 0x2 SSTORE PUSH1 0x3 SLOAD PUSH2 0x3ED SWAP1 DUP3 PUSH2 0x976 JUMP JUMPDEST PUSH1 0x3 SSTORE PUSH1 0x4 SLOAD PUSH2 0x3FD SWAP1 DUP9 PUSH2 0x976 JUMP JUMPDEST PUSH1 0x4 SSTORE CALLER PUSH1 0x0 SWAP1 DUP2 MSTORE PUSH1 0x6 PUSH1 0x20 MSTORE PUSH1 0x40 SWAP1 KECCAK256 SLOAD PUSH2 0x41A SWAP1 DUP9 PUSH2 0x976 JUMP JUMPDEST CALLER PUSH1 0x0 DUP2 DUP2 MSTORE PUSH1 0x6 PUSH1 0x20 MSTORE PUSH1 0x40 SWAP1 DUP2 SWAP1 KECCAK256 SWAP3 SWAP1 SWAP3 SSTORE SWAP1 MLOAD PUSH4 0x23B872DD PUSH1 0xE0 SHL DUP2 MSTORE PUSH1 0x1 PUSH1 0x1 PUSH1 0xA0 SHL SUB DUP7 AND SWAP2 PUSH4 0x23B872DD SWAP2 PUSH2 0x45D SWAP2 SWAP1 ADDRESS SWAP1 DUP8 SWAP1 PUSH1 0x4 ADD PUSH2 0xAC2 JUMP JUMPDEST PUSH1 0x20 PUSH1 0x40 MLOAD DUP1 DUP4 SUB DUP2 PUSH1 0x0 DUP8 DUP1 EXTCODESIZE ISZERO DUP1 ISZERO PUSH2 0x477 JUMPI PUSH1 0x0 DUP1 REVERT JUMPDEST POP GAS CALL ISZERO DUP1 ISZERO PUSH2 0x48B JUMPI RETURNDATASIZE PUSH1 0x0 DUP1 RETURNDATACOPY RETURNDATASIZE PUSH1 0x0 REVERT JUMPDEST POP POP POP POP PUSH1 0x40 MLOAD RETURNDATASIZE PUSH1 0x1F NOT PUSH1 0x1F DUP3 ADD AND DUP3 ADD DUP1 PUSH1 0x40 MSTORE POP DUP2 ADD SWAP1 PUSH2 0x4AF SWAP2 SWAP1 PUSH2 0xA2E JUMP JUMPDEST PUSH2 0x4CB JUMPI PUSH1 0x40 MLOAD PUSH3 0x461BCD PUSH1 0xE5 SHL DUP2 MSTORE PUSH1 0x4 ADD PUSH2 0xFD SWAP1 PUSH2 0xBBC JUMP JUMPDEST PUSH1 0x40 MLOAD PUSH4 0x23B872DD PUSH1 0xE0 SHL DUP2 MSTORE PUSH1 0x1 PUSH1 0x1 PUSH1 0xA0 SHL SUB DUP5 AND SWAP1 PUSH4 0x23B872DD SWAP1 PUSH2 0x2C6 SWAP1 CALLER SWAP1 ADDRESS SWAP1 DUP7 SWAP1 PUSH1 0x4 ADD PUSH2 0xAC2 JUMP JUMPDEST PUSH1 0x5 SLOAD PUSH1 0xFF AND PUSH2 0x51D JUMPI PUSH1 0x40 MLOAD PUSH3 0x461BCD PUSH1 0xE5 SHL DUP2 MSTORE PUSH1 0x4 ADD PUSH2 0xFD SWAP1 PUSH2 0xC28 JUMP JUMPDEST PUSH1 0x0 PUSH2 0x529 DUP5 DUP4 PUSH2 0x982 JUMP JUMPDEST SWAP1 POP DUP3 DUP2 LT ISZERO PUSH2 0x54B JUMPI PUSH1 0x40 MLOAD PUSH3 0x461BCD PUSH1 0xE5 SHL DUP2 MSTORE PUSH1 0x4 ADD PUSH2 0xFD SWAP1 PUSH2 0xCF2 JUMP JUMPDEST PUSH1 0x0 DUP1 DUP1 DUP5 PUSH1 0x1 DUP2 GT ISZERO PUSH2 0x56F JUMPI PUSH4 0x4E487B71 PUSH1 0xE0 SHL PUSH1 0x0 MSTORE PUSH1 0x21 PUSH1 0x4 MSTORE PUSH1 0x24 PUSH1 0x0 REVERT JUMPDEST EQ ISZERO PUSH2 0x5AF JUMPI PUSH1 0x2 SLOAD PUSH2 0x582 SWAP1 DUP8 PUSH2 0x976 JUMP JUMPDEST PUSH1 0x2 SSTORE PUSH1 0x3 SLOAD PUSH2 0x592 SWAP1 DUP5 PUSH2 0x96A JUMP JUMPDEST PUSH1 0x3 SSTORE POP POP PUSH1 0x0 SLOAD PUSH1 0x1 SLOAD PUSH1 0x1 PUSH1 0x1 PUSH1 0xA0 SHL SUB SWAP2 DUP3 AND SWAP2 AND PUSH2 0x5E5 JUMP JUMPDEST PUSH1 0x2 SLOAD PUSH2 0x5BC SWAP1 DUP5 PUSH2 0x96A JUMP JUMPDEST PUSH1 0x2 SSTORE PUSH1 0x3 SLOAD PUSH2 0x5CC SWAP1 DUP8 PUSH2 0x976 JUMP JUMPDEST PUSH1 0x3 SSTORE POP POP PUSH1 0x1 SLOAD PUSH1 0x0 SLOAD PUSH1 0x1 PUSH1 0x1 PUSH1 0xA0 SHL SUB SWAP2 DUP3 AND SWAP2 AND JUMPDEST PUSH1 0x40 MLOAD PUSH4 0xA9059CBB PUSH1 0xE0 SHL DUP2 MSTORE PUSH1 0x1 PUSH1 0x1 PUSH1 0xA0 SHL SUB DUP3 AND SWAP1 PUSH4 0xA9059CBB SWAP1 PUSH2 0x613 SWAP1 CALLER SWAP1 DUP8 SWAP1 PUSH1 0x4 ADD PUSH2 0xAE6 JUMP JUMPDEST PUSH1 0x20 PUSH1 0x40 MLOAD DUP1 DUP4 SUB DUP2 PUSH1 0x0 DUP8 DUP1 EXTCODESIZE ISZERO DUP1 ISZERO PUSH2 0x62D JUMPI PUSH1 0x0 DUP1 REVERT JUMPDEST POP GAS CALL ISZERO DUP1 ISZERO PUSH2 0x641 JUMPI RETURNDATASIZE PUSH1 0x0 DUP1 RETURNDATACOPY RETURNDATASIZE PUSH1 0x0 REVERT JUMPDEST POP POP POP POP PUSH1 0x40 MLOAD RETURNDATASIZE PUSH1 0x1F NOT PUSH1 0x1F DUP3 ADD AND DUP3 ADD DUP1 PUSH1 0x40 MSTORE POP DUP2 ADD SWAP1 PUSH2 0x665 SWAP2 SWAP1 PUSH2 0xA2E JUMP JUMPDEST PUSH2 0x681 JUMPI PUSH1 0x40 MLOAD PUSH3 0x461BCD PUSH1 0xE5 SHL DUP2 MSTORE PUSH1 0x4 ADD PUSH2 0xFD SWAP1 PUSH2 0xCBB JUMP JUMPDEST PUSH1 0x40 MLOAD PUSH4 0x23B872DD PUSH1 0xE0 SHL DUP2 MSTORE PUSH1 0x1 PUSH1 0x1 PUSH1 0xA0 SHL SUB DUP4 AND SWAP1 PUSH4 0x23B872DD SWAP1 PUSH2 0x6B1 SWAP1 CALLER SWAP1 ADDRESS SWAP1 DUP12 SWAP1 PUSH1 0x4 ADD PUSH2 0xAC2 JUMP JUMPDEST PUSH1 0x20 PUSH1 0x40 MLOAD DUP1 DUP4 SUB DUP2 PUSH1 0x0 DUP8 DUP1 EXTCODESIZE ISZERO DUP1 ISZERO PUSH2 0x6CB JUMPI PUSH1 0x0 DUP1 REVERT JUMPDEST POP GAS CALL ISZERO DUP1 ISZERO PUSH2 0x6DF JUMPI RETURNDATASIZE PUSH1 0x0 DUP1 RETURNDATACOPY RETURNDATASIZE PUSH1 0x0 REVERT JUMPDEST POP POP POP POP PUSH1 0x40 MLOAD RETURNDATASIZE PUSH1 0x1F NOT PUSH1 0x1F DUP3 ADD AND DUP3 ADD DUP1 PUSH1 0x40 MSTORE POP DUP2 ADD SWAP1 PUSH2 0x703 SWAP2 SWAP1 PUSH2 0xA2E JUMP JUMPDEST PUSH2 0x71F JUMPI PUSH1 0x40 MLOAD PUSH3 0x461BCD PUSH1 0xE5 SHL DUP2 MSTORE PUSH1 0x4 ADD PUSH2 0xFD SWAP1 PUSH2 0xCBB JUMP JUMPDEST POP POP POP POP POP POP JUMP JUMPDEST PUSH1 0x2 SLOAD DUP2 JUMP JUMPDEST PUSH1 0x3 SLOAD DUP2 JUMP JUMPDEST PUSH1 0x5 SLOAD PUSH1 0xFF AND ISZERO PUSH2 0x756 JUMPI PUSH1 0x40 MLOAD PUSH3 0x461BCD PUSH1 0xE5 SHL DUP2 MSTORE PUSH1 0x4 ADD PUSH2 0xFD SWAP1 PUSH2 0xAFF JUMP JUMPDEST PUSH1 0x5 DUP1 SLOAD PUSH1 0xFF NOT AND PUSH1 0x1 SWAP1 DUP2 OR SWAP1 SWAP2 SSTORE PUSH1 0x0 SLOAD SWAP1 SLOAD PUSH1 0x40 MLOAD PUSH4 0x23B872DD PUSH1 0xE0 SHL DUP2 MSTORE PUSH1 0x1 PUSH1 0x1 PUSH1 0xA0 SHL SUB SWAP3 DUP4 AND SWAP3 SWAP2 SWAP1 SWAP2 AND SWAP1 DUP3 SWAP1 PUSH4 0x23B872DD SWAP1 PUSH2 0x7A3 SWAP1 CALLER SWAP1 ADDRESS SWAP1 DUP10 SWAP1 PUSH1 0x4 ADD PUSH2 0xAC2 JUMP JUMPDEST PUSH1 0x20 PUSH1 0x40 MLOAD DUP1 DUP4 SUB DUP2 PUSH1 0x0 DUP8 DUP1 EXTCODESIZE ISZERO DUP1 ISZERO PUSH2 0x7BD JUMPI PUSH1 0x0 DUP1 REVERT JUMPDEST POP GAS CALL ISZERO DUP1 ISZERO PUSH2 0x7D1 JUMPI RETURNDATASIZE PUSH1 0x0 DUP1 RETURNDATACOPY RETURNDATASIZE PUSH1 0x0 REVERT JUMPDEST POP POP POP POP PUSH1 0x40 MLOAD RETURNDATASIZE PUSH1 0x1F NOT PUSH1 0x1F DUP3 ADD AND DUP3 ADD DUP1 PUSH1 0x40 MSTORE POP DUP2 ADD SWAP1 PUSH2 0x7F5 SWAP2 SWAP1 PUSH2 0xA2E JUMP JUMPDEST PUSH2 0x811 JUMPI PUSH1 0x40 MLOAD PUSH3 0x461BCD PUSH1 0xE5 SHL DUP2 MSTORE PUSH1 0x4 ADD PUSH2 0xFD SWAP1 PUSH2 0xBBC JUMP JUMPDEST PUSH1 0x40 MLOAD PUSH4 0x23B872DD PUSH1 0xE0 SHL DUP2 MSTORE PUSH1 0x1 PUSH1 0x1 PUSH1 0xA0 SHL SUB DUP3 AND SWAP1 PUSH4 0x23B872DD SWAP1 PUSH2 0x841 SWAP1 CALLER SWAP1 ADDRESS SWAP1 DUP9 SWAP1 PUSH1 0x4 ADD PUSH2 0xAC2 JUMP JUMPDEST PUSH1 0x20 PUSH1 0x40 MLOAD DUP1 DUP4 SUB DUP2 PUSH1 0x0 DUP8 DUP1 EXTCODESIZE ISZERO DUP1 ISZERO PUSH2 0x85B JUMPI PUSH1 0x0 DUP1 REVERT JUMPDEST POP GAS CALL ISZERO DUP1 ISZERO PUSH2 0x86F JUMPI RETURNDATASIZE PUSH1 0x0 DUP1 RETURNDATACOPY RETURNDATASIZE PUSH1 0x0 REVERT JUMPDEST POP POP POP POP PUSH1 0x40 MLOAD RETURNDATASIZE PUSH1 0x1F NOT PUSH1 0x1F DUP3 ADD AND DUP3 ADD DUP1 PUSH1 0x40 MSTORE POP DUP2 ADD SWAP1 PUSH2 0x893 SWAP2 SWAP1 PUSH2 0xA2E JUMP JUMPDEST PUSH2 0x8AF JUMPI PUSH1 0x40 MLOAD PUSH3 0x461BCD PUSH1 0xE5 SHL DUP2 MSTORE PUSH1 0x4 ADD PUSH2 0xFD SWAP1 PUSH2 0xB85 JUMP JUMPDEST PUSH1 0x2 SLOAD PUSH2 0x8BC SWAP1 DUP6 PUSH2 0x976 JUMP JUMPDEST PUSH1 0x2 SSTORE PUSH1 0x3 SLOAD PUSH2 0x8CC SWAP1 DUP5 PUSH2 0x976 JUMP JUMPDEST PUSH1 0x3 SSTORE PUSH1 0x4 DUP4 SWAP1 SSTORE CALLER PUSH1 0x0 SWAP1 DUP2 MSTORE PUSH1 0x6 PUSH1 0x20 MSTORE PUSH1 0x40 SWAP1 KECCAK256 SLOAD PUSH2 0x8EE SWAP1 DUP5 PUSH2 0x976 JUMP JUMPDEST CALLER PUSH1 0x0 SWAP1 DUP2 MSTORE PUSH1 0x6 PUSH1 0x20 MSTORE PUSH1 0x40 SWAP1 KECCAK256 SSTORE POP POP POP POP JUMP JUMPDEST PUSH1 0x0 DUP1 PUSH2 0x925 PUSH1 0x4 SLOAD PUSH2 0x178 PUSH3 0xF4240 PUSH1 0x2 SLOAD PUSH2 0x94B SWAP1 SWAP2 SWAP1 PUSH4 0xFFFFFFFF AND JUMP JUMPDEST PUSH2 0x943 PUSH1 0x4 SLOAD PUSH2 0x178 PUSH3 0xF4240 PUSH1 0x3 SLOAD PUSH2 0x94B SWAP1 SWAP2 SWAP1 PUSH4 0xFFFFFFFF AND JUMP JUMPDEST SWAP2 POP SWAP2 POP SWAP1 SWAP2 JUMP JUMPDEST PUSH1 0x0 PUSH2 0x957 DUP3 DUP5 PUSH2 0xD88 JUMP JUMPDEST SWAP4 SWAP3 POP POP POP JUMP JUMPDEST PUSH1 0x0 PUSH2 0x957 DUP3 DUP5 PUSH2 0xD68 JUMP JUMPDEST PUSH1 0x0 PUSH2 0x957 DUP3 DUP5 PUSH2 0xDA7 JUMP JUMPDEST PUSH1 0x0 PUSH2 0x957 DUP3 DUP5 PUSH2 0xD50 JUMP JUMPDEST PUSH1 0x0 DUP1 DUP1 DUP4 PUSH1 0x1 DUP2 GT ISZERO PUSH2 0x9A6 JUMPI PUSH4 0x4E487B71 PUSH1 0xE0 SHL PUSH1 0x0 MSTORE PUSH1 0x21 PUSH1 0x4 MSTORE PUSH1 0x24 PUSH1 0x0 REVERT JUMPDEST EQ PUSH2 0x9B3 JUMPI PUSH1 0x2 SLOAD PUSH2 0x9B7 JUMP JUMPDEST PUSH1 0x3 SLOAD JUMPDEST SWAP1 POP PUSH1 0x0 DUP1 DUP5 PUSH1 0x1 DUP2 GT ISZERO PUSH2 0x9DC JUMPI PUSH4 0x4E487B71 PUSH1 0xE0 SHL PUSH1 0x0 MSTORE PUSH1 0x21 PUSH1 0x4 MSTORE PUSH1 0x24 PUSH1 0x0 REVERT JUMPDEST EQ PUSH2 0x9E9 JUMPI PUSH1 0x3 SLOAD PUSH2 0x9ED JUMP JUMPDEST PUSH1 0x2 SLOAD JUMPDEST SWAP1 POP PUSH1 0x0 PUSH1 0x2 SLOAD PUSH1 0x3 SLOAD PUSH2 0xA01 SWAP2 SWAP1 PUSH2 0xD88 JUMP JUMPDEST SWAP1 POP PUSH1 0x0 PUSH2 0xA23 PUSH2 0xA1C PUSH2 0xA15 DUP10 DUP7 PUSH2 0xD50 JUMP JUMPDEST DUP5 SWAP1 PUSH2 0x95E JUMP JUMPDEST DUP6 SWAP1 PUSH2 0x96A JUMP JUMPDEST SWAP8 SWAP7 POP POP POP POP POP POP POP JUMP JUMPDEST PUSH1 0x0 PUSH1 0x20 DUP3 DUP5 SUB SLT ISZERO PUSH2 0xA3F JUMPI DUP1 DUP2 REVERT JUMPDEST DUP2 MLOAD DUP1 ISZERO ISZERO DUP2 EQ PUSH2 0x957 JUMPI DUP2 DUP3 REVERT JUMPDEST PUSH1 0x0 PUSH1 0x20 DUP3 DUP5 SUB SLT ISZERO PUSH2 0xA5F JUMPI DUP1 DUP2 REVERT JUMPDEST POP CALLDATALOAD SWAP2 SWAP1 POP JUMP JUMPDEST PUSH1 0x0 DUP1 PUSH1 0x40 DUP4 DUP6 SUB SLT ISZERO PUSH2 0xA78 JUMPI DUP1 DUP2 REVERT JUMPDEST POP POP DUP1 CALLDATALOAD SWAP3 PUSH1 0x20 SWAP1 SWAP2 ADD CALLDATALOAD SWAP2 POP JUMP JUMPDEST PUSH1 0x0 DUP1 PUSH1 0x0 PUSH1 0x60 DUP5 DUP7 SUB SLT ISZERO PUSH2 0xA9B JUMPI DUP1 DUP2 REVERT JUMPDEST DUP4 CALLDATALOAD SWAP3 POP PUSH1 0x20 DUP5 ADD CALLDATALOAD SWAP2 POP PUSH1 0x40 DUP5 ADD CALLDATALOAD PUSH1 0x2 DUP2 LT PUSH2 0xAB7 JUMPI DUP2 DUP3 REVERT JUMPDEST DUP1 SWAP2 POP POP SWAP3 POP SWAP3 POP SWAP3 JUMP JUMPDEST PUSH1 0x1 PUSH1 0x1 PUSH1 0xA0 SHL SUB SWAP4 DUP5 AND DUP2 MSTORE SWAP2 SWAP1 SWAP3 AND PUSH1 0x20 DUP3 ADD MSTORE PUSH1 0x40 DUP2 ADD SWAP2 SWAP1 SWAP2 MSTORE PUSH1 0x60 ADD SWAP1 JUMP JUMPDEST PUSH1 0x1 PUSH1 0x1 PUSH1 0xA0 SHL SUB SWAP3 SWAP1 SWAP3 AND DUP3 MSTORE PUSH1 0x20 DUP3 ADD MSTORE PUSH1 0x40 ADD SWAP1 JUMP JUMPDEST PUSH1 0x20 DUP1 DUP3 MSTORE PUSH1 0x1E SWAP1 DUP3 ADD MSTORE PUSH32 0x54686520706F6F6C2077617320616C726561647920696E697469617465640000 PUSH1 0x40 DUP3 ADD MSTORE PUSH1 0x60 ADD SWAP1 JUMP JUMPDEST PUSH1 0x20 DUP1 DUP3 MSTORE PUSH1 0x2F SWAP1 DUP3 ADD MSTORE PUSH32 0x54686520616D6F756E74206F6620737570706C696564206C7020746F6B656E73 PUSH1 0x40 DUP3 ADD MSTORE PUSH15 0x1039B437BAB632103132901F101817 PUSH1 0x89 SHL PUSH1 0x60 DUP3 ADD MSTORE PUSH1 0x80 ADD SWAP1 JUMP JUMPDEST PUSH1 0x20 DUP1 DUP3 MSTORE PUSH1 0x18 SWAP1 DUP3 ADD MSTORE PUSH32 0x5553444320616D6F756E7420756E617661696C61626C652E0000000000000000 PUSH1 0x40 DUP3 ADD MSTORE PUSH1 0x60 ADD SWAP1 JUMP JUMPDEST PUSH1 0x20 DUP1 DUP3 MSTORE PUSH1 0x18 SWAP1 DUP3 ADD MSTORE PUSH32 0x4C696E6B20616D6F756E7420756E617661696C61626C652E0000000000000000 PUSH1 0x40 DUP3 ADD MSTORE PUSH1 0x60 ADD SWAP1 JUMP JUMPDEST PUSH1 0x20 DUP1 DUP3 MSTORE DUP2 DUP2 ADD MSTORE PUSH32 0x596F7520646F6E2774206861766520656E6F756768204C5020746F6B656E732E PUSH1 0x40 DUP3 ADD MSTORE PUSH1 0x60 ADD SWAP1 JUMP JUMPDEST PUSH1 0x20 DUP1 DUP3 MSTORE PUSH1 0x23 SWAP1 DUP3 ADD MSTORE PUSH32 0x54686520706F6F6C2073686F756C6420626520696E6974696174656420666972 PUSH1 0x40 DUP3 ADD MSTORE PUSH3 0x39BA17 PUSH1 0xE9 SHL PUSH1 0x60 DUP3 ADD MSTORE PUSH1 0x80 ADD SWAP1 JUMP JUMPDEST PUSH1 0x20 DUP1 DUP3 MSTORE PUSH1 0x30 SWAP1 DUP3 ADD MSTORE PUSH32 0x54686520616D6F756E74206F6620726571756573746564206C7020746F6B656E PUSH1 0x40 DUP3 ADD MSTORE PUSH16 0x399039B437BAB632103132901F101817 PUSH1 0x81 SHL PUSH1 0x60 DUP3 ADD MSTORE PUSH1 0x80 ADD SWAP1 JUMP JUMPDEST PUSH1 0x20 DUP1 DUP3 MSTORE PUSH1 0x19 SWAP1 DUP3 ADD MSTORE PUSH32 0x546F6B656E20616D6F756E7420756E617661696C61626C652E00000000000000 PUSH1 0x40 DUP3 ADD MSTORE PUSH1 0x60 ADD SWAP1 JUMP JUMPDEST PUSH1 0x20 DUP1 DUP3 MSTORE PUSH1 0x35 SWAP1 DUP3 ADD MSTORE PUSH32 0x54686520616D6F756E74206F662070757263686173656420746F6B656E206973 PUSH1 0x40 DUP3 ADD MSTORE PUSH21 0x103637BBB2B9103A3430B7103932B8BAB4B932B217 PUSH1 0x59 SHL PUSH1 0x60 DUP3 ADD MSTORE PUSH1 0x80 ADD SWAP1 JUMP JUMPDEST SWAP1 DUP2 MSTORE PUSH1 0x20 ADD SWAP1 JUMP JUMPDEST PUSH1 0x0 DUP3 NOT DUP3 GT ISZERO PUSH2 0xD63 JUMPI PUSH2 0xD63 PUSH2 0xDBE JUMP JUMPDEST POP ADD SWAP1 JUMP JUMPDEST PUSH1 0x0 DUP3 PUSH2 0xD83 JUMPI PUSH4 0x4E487B71 PUSH1 0xE0 SHL DUP2 MSTORE PUSH1 0x12 PUSH1 0x4 MSTORE PUSH1 0x24 DUP2 REVERT JUMPDEST POP DIV SWAP1 JUMP JUMPDEST PUSH1 0x0 DUP2 PUSH1 0x0 NOT DIV DUP4 GT DUP3 ISZERO ISZERO AND ISZERO PUSH2 0xDA2 JUMPI PUSH2 0xDA2 PUSH2 0xDBE JUMP JUMPDEST POP MUL SWAP1 JUMP JUMPDEST PUSH1 0x0 DUP3 DUP3 LT ISZERO PUSH2 0xDB9 JUMPI PUSH2 0xDB9 PUSH2 0xDBE JUMP JUMPDEST POP SUB SWAP1 JUMP JUMPDEST PUSH4 0x4E487B71 PUSH1 0xE0 SHL PUSH1 0x0 MSTORE PUSH1 0x11 PUSH1 0x4 MSTORE PUSH1 0x24 PUSH1 0x0 REVERT INVALID LOG2 PUSH5 0x6970667358 0x22 SLT KECCAK256 LOG2 SWAP1 0x4E PUSH17 0xD3AFC40EE885C4EA20BED64406EBAA4530 PUSH15 0x863F2BDCBBB984CCC79164736F6C63 NUMBER STOP ADDMOD STOP STOP CALLER ","sha1":"7628171623719a95317a8cb0516dc35a19590b86","source":"// SPDX-License-Identifier: UNLICENSED\n\npragma solidity ^0.8.0;\n\nimport \"@openzeppelin/contracts/utils/math/SafeMath.sol\";\n\n\ninterface IERC20 {\n    function transfer(address recipient, uint256 amount) external returns (bool);\n    function transferFrom(address sender, address recipient, uint256 amount) external returns (bool);\n    function approve(address spender, uint256 amount) external returns (bool);\n}\n\n\ncontract SimpleSwap{\n    using SafeMath for uint256;\n\n    enum Tokens{Link, USDC}\n\n    address addressLink = 0xa36085F69e2889c224210F603D836748e7dC0088;   //Kovan address      //0x01BE23585060835E02B77ef475b0Cc51aA1e0709; rinkeby\n    address addressUSDC = 0xb7a4F3E9097C08dA09517b5aB877F7a917224ede;    //Kovan address            //0xeb8f08a975Ab53E34D8a0330E0D34de942C95926; rinkeby\n\n    uint256 public totalAvailableLink = 0;      //18 decimals\n    uint256 public totalAvailableUSDC = 0;       //6 decimals\n\n    uint256 totalLpTokens = 0;               //6 decimals\n\n    bool isPoolInitiated = false;\n\n    mapping(address => uint256) userToAmountLpTokens;\n\n\n    function initiatePool(uint256 amountLinkToSupply, uint256 amountUsdcToSupply) public {\n        require(!isPoolInitiated, \"The pool was already initiated\");\n        isPoolInitiated = true;\n        IERC20 Link = IERC20(addressLink);\n        IERC20 USDC = IERC20(addressUSDC);\n\n        require(Link.transferFrom(msg.sender, address(this), amountLinkToSupply), \"Link amount unavailable.\");\n        require(USDC.transferFrom(msg.sender, address(this), amountUsdcToSupply), \"USDC amount unavailable.\");\n\n        totalAvailableLink = totalAvailableLink.add(amountLinkToSupply);\n        totalAvailableUSDC = totalAvailableUSDC.add(amountUsdcToSupply);\n\n        totalLpTokens = amountUsdcToSupply;\n\n        userToAmountLpTokens[msg.sender] = userToAmountLpTokens[msg.sender].add(totalLpTokens);\n    }\n\n\n    // Basic check: Done\n    function swap(uint256 quantitySoldToken, uint256 minAmountPurchasedToken, Tokens tokenForSale) public {\n        require(isPoolInitiated, \"The pool should be initiated first.\");\n        uint256 amountPurchasedToken = getAmountPurchasedToken(quantitySoldToken, tokenForSale);\n        require(amountPurchasedToken >= minAmountPurchasedToken, \"The amount of purchased token is lower than required.\");\n\n        IERC20 soldToken;\n        IERC20 boughtToken;\n\n        if (tokenForSale == Tokens.Link) {\n            totalAvailableLink  = totalAvailableLink.add(quantitySoldToken);\n            totalAvailableUSDC = totalAvailableUSDC.sub(amountPurchasedToken);\n\n            soldToken = IERC20(addressLink);\n            boughtToken = IERC20(addressUSDC);\n        }\n\n        else {\n            totalAvailableLink = totalAvailableLink.sub(amountPurchasedToken);\n            totalAvailableUSDC = totalAvailableUSDC.add(quantitySoldToken);\n\n            soldToken = IERC20(addressUSDC); \n            boughtToken = IERC20(addressLink);\n        }\n        \n        require(boughtToken.transfer(msg.sender, amountPurchasedToken), \"Token amount unavailable.\");\n        require(soldToken.transferFrom(msg.sender, address(this), quantitySoldToken), \"Token amount unavailable.\");\n\n    }\n\n    // Basic check: Done\n    function supply(uint256 amountLpTokens) public {\n        require(isPoolInitiated, \"The pool should be initiated first.\");\n        require(amountLpTokens > 0, \"The amount of supplied lp tokens should be > 0.\");\n        (uint256 amountLinkPerLpToken, uint256 amountUsdcPerLpToken) = getLpTokenPrice();\n\n        IERC20 Link = IERC20(addressLink);\n        IERC20 USDC = IERC20(addressUSDC);\n\n        uint256 amountLinkToSupply = amountLinkPerLpToken.mul(amountLpTokens).div(10 ** 6); // 18 decimals\n        uint256 amountUSDCToSupply = amountUsdcPerLpToken.mul(amountLpTokens).div(10 ** 6); // 6 decimals\n\n        totalAvailableLink = totalAvailableLink.add(amountLinkToSupply);\n        totalAvailableUSDC = totalAvailableUSDC.add(amountUSDCToSupply);\n\n        totalLpTokens = totalLpTokens.add(amountLpTokens);\n\n        userToAmountLpTokens[msg.sender] = userToAmountLpTokens[msg.sender].add(amountLpTokens);\n\n        require(Link.transferFrom(msg.sender, address(this), amountLinkToSupply), \"Link amount unavailable.\");\n        require(USDC.transferFrom(msg.sender, address(this), amountUSDCToSupply), \"USDC amount unavailable.\");\n    }\n\n\n    // Basic check: Done\n    function withdraw(uint256 amountLpTokens) public {\n        require(isPoolInitiated, \"The pool should be initiated first.\");\n        require(amountLpTokens > 0, \"The amount of requested lp tokens should be > 0.\");\n        require(userToAmountLpTokens[msg.sender] >= amountLpTokens, \"You don't have enough LP tokens.\");\n        (uint256 amountLinkPerLpToken, uint256 amountUSDCPerLpToken)  = getLpTokenPrice();\n\n        uint256 amountLinkToWithdraw = amountLinkPerLpToken.mul(amountLpTokens).div(10 ** 6);\n        uint256 amountUSDCToWithdraw = amountUSDCPerLpToken.mul(amountLpTokens).div(10 ** 6);\n\n        totalAvailableLink = totalAvailableLink.sub(amountLinkToWithdraw);\n        totalAvailableUSDC = totalAvailableUSDC.sub(amountUSDCToWithdraw);\n\n        totalLpTokens = totalLpTokens.sub(amountLpTokens);\n\n        userToAmountLpTokens[msg.sender] = userToAmountLpTokens[msg.sender].sub(amountLpTokens);\n\n        IERC20 Link = IERC20(addressLink);\n        IERC20 USDC = IERC20(addressUSDC);\n\n        require(Link.transfer(msg.sender, amountLinkToWithdraw), \"Link amount unavailable.\");\n        require(USDC.transfer(msg.sender, amountUSDCToWithdraw), \"USDC amount unavailable.\");\n\n    }\n\n\n\n//////////////////////////////////////////////////////////////////////////////////////////////////////////////////////////////////////////////////\n    // Link - USDC                      // 6 decimals\n    function getAmountPurchasedToken(uint256 amount, Tokens tokenForSale) internal view returns(uint256)\n    {\n        uint256 y = (tokenForSale == Tokens.Link) ? totalAvailableUSDC : totalAvailableLink;\n        uint256 x = (tokenForSale == Tokens.Link) ? totalAvailableLink : totalAvailableUSDC;\n\n        uint256 C = totalAvailableUSDC * totalAvailableLink;         // 24 decimals\n        uint256 amountPurchasedTokens = y.sub(C.div(x + amount)); // 6 or 18 decimals\n\n        return amountPurchasedTokens;\n    }\n\n\n\n    function getLpTokenPrice() internal view returns(uint256, uint256) \n    {\n        return (totalAvailableLink.mul(10 ** 6).div(totalLpTokens), totalAvailableUSDC.mul(10 ** 6).div(totalLpTokens));\n    }\n\n\n}\n\n\n","sourcePath":"contracts/SimpleSwap.sol","type":"contract","deployment":{"address":"0x13B91e69E24B24f8Ac426274A03Cd8d7F9630F79","chainid":"42","blockHeight":32230970}}