{"abi":[{"inputs":[],"name":"getLpTokenPrice","outputs":[{"internalType":"uint256","name":"","type":"uint256"},{"internalType":"uint256","name":"","type":"uint256"}],"stateMutability":"view","type":"function"},{"inputs":[{"internalType":"uint256","name":"amountLinkToSupply","type":"uint256"},{"internalType":"uint256","name":"amountUsdcToSupply","type":"uint256"}],"name":"initiatePool","outputs":[],"stateMutability":"nonpayable","type":"function"},{"inputs":[{"internalType":"uint256","name":"amountLpTokens","type":"uint256"}],"name":"supply","outputs":[],"stateMutability":"nonpayable","type":"function"},{"inputs":[{"internalType":"uint256","name":"quantitySoldToken","type":"uint256"},{"internalType":"uint256","name":"minAmountPurchasedToken","type":"uint256"},{"internalType":"enum SimpleSwap.Tokens","name":"tokenForSale","type":"uint8"}],"name":"swap","outputs":[],"stateMutability":"nonpayable","type":"function"},{"inputs":[],"name":"totalAvailableLink","outputs":[{"internalType":"uint256","name":"","type":"uint256"}],"stateMutability":"view","type":"function"},{"inputs":[],"name":"totalAvailableUSDC","outputs":[{"internalType":"uint256","name":"","type":"uint256"}],"stateMutability":"view","type":"function"},{"inputs":[],"name":"totalLpTokens","outputs":[{"internalType":"uint256","name":"","type":"uint256"}],"stateMutability":"view","type":"function"},{"inputs":[{"internalType":"uint256","name":"amountLpTokens","type":"uint256"}],"name":"withdraw","outputs":[],"stateMutability":"nonpayable","type":"function"}],"bytecode":"6080604052600080546001600160a01b031990811673a36085f69e2889c224210f603d836748e7dc00881782556001805490911673b7a4f3e9097c08da09517b5ab877f7a917224ede179055600281905560038190556004556005805460ff1916905534801561006e57600080fd5b50610e628061007e6000396000f3fe608060405234801561001057600080fd5b50600436106100885760003560e01c80636f5cdb6c1161005b5780636f5cdb6c146100e6578063868c844f146100fc578063b2e411c214610104578063ce49ea9a1461010c57610088565b80632e1a7d4d1461008d57806335403023146100a25780635c36d25e146100b5578063618e552c146100c8575b600080fd5b6100a061009b366004610a98565b61011f565b005b6100a06100b0366004610a98565b610381565b6100a06100c3366004610ad1565b61053f565b6100d061076b565b6040516100dd9190610d91565b60405180910390f35b6100ee610771565b6040516100dd929190610d9a565b6100d06107b8565b6100d06107be565b6100a061011a366004610ab0565b6107c4565b60055460ff1661014a5760405162461bcd60e51b815260040161014190610c72565b60405180910390fd5b6000811161016a5760405162461bcd60e51b815260040161014190610cb5565b336000908152600660205260409020548111156101995760405162461bcd60e51b815260040161014190610c3d565b6000806101a4610771565b909250905060006101c2620f42406101bc8587610995565b906109a8565b905060006101d7620f42406101bc8588610995565b6002549091506101e790836109b4565b6002556003546101f790826109b4565b60035560045461020790866109b4565b6004553360009081526006602052604090205461022490866109b4565b336000818152600660205260408082209390935554600154925163a9059cbb60e01b81526001600160a01b039182169390911691839163a9059cbb9161026e918890600401610b30565b602060405180830381600087803b15801561028857600080fd5b505af115801561029c573d6000803e3d6000fd5b505050506040513d601f19601f820116820180604052508101906102c09190610a78565b6102dc5760405162461bcd60e51b815260040161014190610c06565b60405163a9059cbb60e01b81526001600160a01b0382169063a9059cbb9061030a9033908790600401610b30565b602060405180830381600087803b15801561032457600080fd5b505af1158015610338573d6000803e3d6000fd5b505050506040513d601f19601f8201168201806040525081019061035c9190610a78565b6103785760405162461bcd60e51b815260040161014190610bcf565b50505050505050565b60055460ff166103a35760405162461bcd60e51b815260040161014190610c72565b600081116103c35760405162461bcd60e51b815260040161014190610b80565b6000806103ce610771565b600080546001549395509193506001600160a01b0391821692909116906103fc620f42406101bc8789610995565b90506000610411620f42406101bc878a610995565b60025490915061042190836109c0565b60025560035461043190826109c0565b60035560045461044190886109c0565b6004553360009081526006602052604090205461045e90886109c0565b33600081815260066020526040908190209290925590516323b872dd60e01b81526001600160a01b038616916323b872dd916104a1919030908790600401610b0c565b602060405180830381600087803b1580156104bb57600080fd5b505af11580156104cf573d6000803e3d6000fd5b505050506040513d601f19601f820116820180604052508101906104f39190610a78565b61050f5760405162461bcd60e51b815260040161014190610c06565b6040516323b872dd60e01b81526001600160a01b038416906323b872dd9061030a90339030908690600401610b0c565b60055460ff166105615760405162461bcd60e51b815260040161014190610c72565b600061056d84836109cc565b90508281101561058f5760405162461bcd60e51b815260040161014190610d3c565b600080808460018111156105b357634e487b7160e01b600052602160045260246000fd5b14156105f3576002546105c690876109c0565b6002556003546105d690846109b4565b60035550506000546001546001600160a01b039182169116610629565b60025461060090846109b4565b60025560035461061090876109c0565b60035550506001546000546001600160a01b0391821691165b60405163a9059cbb60e01b81526001600160a01b0382169063a9059cbb906106579033908790600401610b30565b602060405180830381600087803b15801561067157600080fd5b505af1158015610685573d6000803e3d6000fd5b505050506040513d601f19601f820116820180604052508101906106a99190610a78565b6106c55760405162461bcd60e51b815260040161014190610d05565b6040516323b872dd60e01b81526001600160a01b038316906323b872dd906106f590339030908b90600401610b0c565b602060405180830381600087803b15801561070f57600080fd5b505af1158015610723573d6000803e3d6000fd5b505050506040513d601f19601f820116820180604052508101906107479190610a78565b6107635760405162461bcd60e51b815260040161014190610d05565b505050505050565b60025481565b6000806107926004546101bc620f424060025461099590919063ffffffff16565b6107b06004546101bc620f424060035461099590919063ffffffff16565b915091509091565b60045481565b60035481565b60055460ff16156107e75760405162461bcd60e51b815260040161014190610b49565b6005805460ff1916600190811790915560005490546040516323b872dd60e01b81526001600160a01b0392831692919091169082906323b872dd9061083490339030908990600401610b0c565b602060405180830381600087803b15801561084e57600080fd5b505af1158015610862573d6000803e3d6000fd5b505050506040513d601f19601f820116820180604052508101906108869190610a78565b6108a25760405162461bcd60e51b815260040161014190610c06565b6040516323b872dd60e01b81526001600160a01b038216906323b872dd906108d290339030908890600401610b0c565b602060405180830381600087803b1580156108ec57600080fd5b505af1158015610900573d6000803e3d6000fd5b505050506040513d601f19601f820116820180604052508101906109249190610a78565b6109405760405162461bcd60e51b815260040161014190610bcf565b60025461094d90856109c0565b60025560035461095d90846109c0565b60035560048390553360009081526006602052604090205461097f90846109c0565b3360009081526006602052604090205550505050565b60006109a18284610de0565b9392505050565b60006109a18284610dc0565b60006109a18284610dff565b60006109a18284610da8565b600080808360018111156109f057634e487b7160e01b600052602160045260246000fd5b146109fd57600254610a01565b6003545b9050600080846001811115610a2657634e487b7160e01b600052602160045260246000fd5b14610a3357600354610a37565b6002545b90506000600254600354610a4b9190610de0565b90506000610a6d610a66610a5f8986610da8565b84906109a8565b85906109b4565b979650505050505050565b600060208284031215610a89578081fd5b815180151581146109a1578182fd5b600060208284031215610aa9578081fd5b5035919050565b60008060408385031215610ac2578081fd5b50508035926020909101359150565b600080600060608486031215610ae5578081fd5b8335925060208401359150604084013560028110610b01578182fd5b809150509250925092565b6001600160a01b039384168152919092166020820152604081019190915260600190565b6001600160a01b03929092168252602082015260400190565b6020808252601e908201527f54686520706f6f6c2077617320616c726561647920696e697469617465640000604082015260600190565b6020808252602f908201527f54686520616d6f756e74206f6620737570706c696564206c7020746f6b656e7360408201526e1039b437bab632103132901f10181760891b606082015260800190565b60208082526018908201527f5553444320616d6f756e7420756e617661696c61626c652e0000000000000000604082015260600190565b60208082526018908201527f4c696e6b20616d6f756e7420756e617661696c61626c652e0000000000000000604082015260600190565b6020808252818101527f596f7520646f6e2774206861766520656e6f756768204c5020746f6b656e732e604082015260600190565b60208082526023908201527f54686520706f6f6c2073686f756c6420626520696e697469617465642066697260408201526239ba1760e91b606082015260800190565b60208082526030908201527f54686520616d6f756e74206f6620726571756573746564206c7020746f6b656e60408201526f399039b437bab632103132901f10181760811b606082015260800190565b60208082526019908201527f546f6b656e20616d6f756e7420756e617661696c61626c652e00000000000000604082015260600190565b60208082526035908201527f54686520616d6f756e74206f662070757263686173656420746f6b656e206973604082015274103637bbb2b9103a3430b7103932b8bab4b932b21760591b606082015260800190565b90815260200190565b918252602082015260400190565b60008219821115610dbb57610dbb610e16565b500190565b600082610ddb57634e487b7160e01b81526012600452602481fd5b500490565b6000816000190483118215151615610dfa57610dfa610e16565b500290565b600082821015610e1157610e11610e16565b500390565b634e487b7160e01b600052601160045260246000fdfea26469706673582212202ba2f919841b21128a1ba36b286144a78e5481bc6db9f2d1a69a60993edc7dc464736f6c63430008000033","bytecodeSha1":"341f7c8b51f3d134a4fa05018ce37fd57ad6787e","compiler":{"evm_version":"istanbul","optimizer":{"enabled":true,"runs":200},"version":"0.8.0+commit.c7dfd78e"},"contractName":"SimpleSwap","language":"Solidity","natspec":{"kind":"dev","methods":{},"version":1},"opcodes":"PUSH1 0x80 PUSH1 0x40 MSTORE CALLVALUE DUP1 ISZERO PUSH2 0x10 JUMPI PUSH1 0x0 DUP1 REVERT JUMPDEST POP PUSH1 0x4 CALLDATASIZE LT PUSH2 0x88 JUMPI PUSH1 0x0 CALLDATALOAD PUSH1 0xE0 SHR DUP1 PUSH4 0x6F5CDB6C GT PUSH2 0x5B JUMPI DUP1 PUSH4 0x6F5CDB6C EQ PUSH2 0xE6 JUMPI DUP1 PUSH4 0x868C844F EQ PUSH2 0xFC JUMPI DUP1 PUSH4 0xB2E411C2 EQ PUSH2 0x104 JUMPI DUP1 PUSH4 0xCE49EA9A EQ PUSH2 0x10C JUMPI PUSH2 0x88 JUMP JUMPDEST DUP1 PUSH4 0x2E1A7D4D EQ PUSH2 0x8D JUMPI DUP1 PUSH4 0x35403023 EQ PUSH2 0xA2 JUMPI DUP1 PUSH4 0x5C36D25E EQ PUSH2 0xB5 JUMPI DUP1 PUSH4 0x618E552C EQ PUSH2 0xC8 JUMPI JUMPDEST PUSH1 0x0 DUP1 REVERT JUMPDEST PUSH2 0xA0 PUSH2 0x9B CALLDATASIZE PUSH1 0x4 PUSH2 0xA98 JUMP JUMPDEST PUSH2 0x11F JUMP JUMPDEST STOP JUMPDEST PUSH2 0xA0 PUSH2 0xB0 CALLDATASIZE PUSH1 0x4 PUSH2 0xA98 JUMP JUMPDEST PUSH2 0x381 JUMP JUMPDEST PUSH2 0xA0 PUSH2 0xC3 CALLDATASIZE PUSH1 0x4 PUSH2 0xAD1 JUMP JUMPDEST PUSH2 0x53F JUMP JUMPDEST PUSH2 0xD0 PUSH2 0x76B JUMP JUMPDEST PUSH1 0x40 MLOAD PUSH2 0xDD SWAP2 SWAP1 PUSH2 0xD91 JUMP JUMPDEST PUSH1 0x40 MLOAD DUP1 SWAP2 SUB SWAP1 RETURN JUMPDEST PUSH2 0xEE PUSH2 0x771 JUMP JUMPDEST PUSH1 0x40 MLOAD PUSH2 0xDD SWAP3 SWAP2 SWAP1 PUSH2 0xD9A JUMP JUMPDEST PUSH2 0xD0 PUSH2 0x7B8 JUMP JUMPDEST PUSH2 0xD0 PUSH2 0x7BE JUMP JUMPDEST PUSH2 0xA0 PUSH2 0x11A CALLDATASIZE PUSH1 0x4 PUSH2 0xAB0 JUMP JUMPDEST PUSH2 0x7C4 JUMP JUMPDEST PUSH1 0x5 SLOAD PUSH1 0xFF AND PUSH2 0x14A JUMPI PUSH1 0x40 MLOAD PUSH3 0x461BCD PUSH1 0xE5 SHL DUP2 MSTORE PUSH1 0x4 ADD PUSH2 0x141 SWAP1 PUSH2 0xC72 JUMP JUMPDEST PUSH1 0x40 MLOAD DUP1 SWAP2 SUB SWAP1 REVERT JUMPDEST PUSH1 0x0 DUP2 GT PUSH2 0x16A JUMPI PUSH1 0x40 MLOAD PUSH3 0x461BCD PUSH1 0xE5 SHL DUP2 MSTORE PUSH1 0x4 ADD PUSH2 0x141 SWAP1 PUSH2 0xCB5 JUMP JUMPDEST CALLER PUSH1 0x0 SWAP1 DUP2 MSTORE PUSH1 0x6 PUSH1 0x20 MSTORE PUSH1 0x40 SWAP1 KECCAK256 SLOAD DUP2 GT ISZERO PUSH2 0x199 JUMPI PUSH1 0x40 MLOAD PUSH3 0x461BCD PUSH1 0xE5 SHL DUP2 MSTORE PUSH1 0x4 ADD PUSH2 0x141 SWAP1 PUSH2 0xC3D JUMP JUMPDEST PUSH1 0x0 DUP1 PUSH2 0x1A4 PUSH2 0x771 JUMP JUMPDEST SWAP1 SWAP3 POP SWAP1 POP PUSH1 0x0 PUSH2 0x1C2 PUSH3 0xF4240 PUSH2 0x1BC DUP6 DUP8 PUSH2 0x995 JUMP JUMPDEST SWAP1 PUSH2 0x9A8 JUMP JUMPDEST SWAP1 POP PUSH1 0x0 PUSH2 0x1D7 PUSH3 0xF4240 PUSH2 0x1BC DUP6 DUP9 PUSH2 0x995 JUMP JUMPDEST PUSH1 0x2 SLOAD SWAP1 SWAP2 POP PUSH2 0x1E7 SWAP1 DUP4 PUSH2 0x9B4 JUMP JUMPDEST PUSH1 0x2 SSTORE PUSH1 0x3 SLOAD PUSH2 0x1F7 SWAP1 DUP3 PUSH2 0x9B4 JUMP JUMPDEST PUSH1 0x3 SSTORE PUSH1 0x4 SLOAD PUSH2 0x207 SWAP1 DUP7 PUSH2 0x9B4 JUMP JUMPDEST PUSH1 0x4 SSTORE CALLER PUSH1 0x0 SWAP1 DUP2 MSTORE PUSH1 0x6 PUSH1 0x20 MSTORE PUSH1 0x40 SWAP1 KECCAK256 SLOAD PUSH2 0x224 SWAP1 DUP7 PUSH2 0x9B4 JUMP JUMPDEST CALLER PUSH1 0x0 DUP2 DUP2 MSTORE PUSH1 0x6 PUSH1 0x20 MSTORE PUSH1 0x40 DUP1 DUP3 KECCAK256 SWAP4 SWAP1 SWAP4 SSTORE SLOAD PUSH1 0x1 SLOAD SWAP3 MLOAD PUSH4 0xA9059CBB PUSH1 0xE0 SHL DUP2 MSTORE PUSH1 0x1 PUSH1 0x1 PUSH1 0xA0 SHL SUB SWAP2 DUP3 AND SWAP4 SWAP1 SWAP2 AND SWAP2 DUP4 SWAP2 PUSH4 0xA9059CBB SWAP2 PUSH2 0x26E SWAP2 DUP9 SWAP1 PUSH1 0x4 ADD PUSH2 0xB30 JUMP JUMPDEST PUSH1 0x20 PUSH1 0x40 MLOAD DUP1 DUP4 SUB DUP2 PUSH1 0x0 DUP8 DUP1 EXTCODESIZE ISZERO DUP1 ISZERO PUSH2 0x288 JUMPI PUSH1 0x0 DUP1 REVERT JUMPDEST POP GAS CALL ISZERO DUP1 ISZERO PUSH2 0x29C JUMPI RETURNDATASIZE PUSH1 0x0 DUP1 RETURNDATACOPY RETURNDATASIZE PUSH1 0x0 REVERT JUMPDEST POP POP POP POP PUSH1 0x40 MLOAD RETURNDATASIZE PUSH1 0x1F NOT PUSH1 0x1F DUP3 ADD AND DUP3 ADD DUP1 PUSH1 0x40 MSTORE POP DUP2 ADD SWAP1 PUSH2 0x2C0 SWAP2 SWAP1 PUSH2 0xA78 JUMP JUMPDEST PUSH2 0x2DC JUMPI PUSH1 0x40 MLOAD PUSH3 0x461BCD PUSH1 0xE5 SHL DUP2 MSTORE PUSH1 0x4 ADD PUSH2 0x141 SWAP1 PUSH2 0xC06 JUMP JUMPDEST PUSH1 0x40 MLOAD PUSH4 0xA9059CBB PUSH1 0xE0 SHL DUP2 MSTORE PUSH1 0x1 PUSH1 0x1 PUSH1 0xA0 SHL SUB DUP3 AND SWAP1 PUSH4 0xA9059CBB SWAP1 PUSH2 0x30A SWAP1 CALLER SWAP1 DUP8 SWAP1 PUSH1 0x4 ADD PUSH2 0xB30 JUMP JUMPDEST PUSH1 0x20 PUSH1 0x40 MLOAD DUP1 DUP4 SUB DUP2 PUSH1 0x0 DUP8 DUP1 EXTCODESIZE ISZERO DUP1 ISZERO PUSH2 0x324 JUMPI PUSH1 0x0 DUP1 REVERT JUMPDEST POP GAS CALL ISZERO DUP1 ISZERO PUSH2 0x338 JUMPI RETURNDATASIZE PUSH1 0x0 DUP1 RETURNDATACOPY RETURNDATASIZE PUSH1 0x0 REVERT JUMPDEST POP POP POP POP PUSH1 0x40 MLOAD RETURNDATASIZE PUSH1 0x1F NOT PUSH1 0x1F DUP3 ADD AND DUP3 ADD DUP1 PUSH1 0x40 MSTORE POP DUP2 ADD SWAP1 PUSH2 0x35C SWAP2 SWAP1 PUSH2 0xA78 JUMP JUMPDEST PUSH2 0x378 JUMPI PUSH1 0x40 MLOAD PUSH3 0x461BCD PUSH1 0xE5 SHL DUP2 MSTORE PUSH1 0x4 ADD PUSH2 0x141 SWAP1 PUSH2 0xBCF JUMP JUMPDEST POP POP POP POP POP POP POP JUMP JUMPDEST PUSH1 0x5 SLOAD PUSH1 0xFF AND PUSH2 0x3A3 JUMPI PUSH1 0x40 MLOAD PUSH3 0x461BCD PUSH1 0xE5 SHL DUP2 MSTORE PUSH1 0x4 ADD PUSH2 0x141 SWAP1 PUSH2 0xC72 JUMP JUMPDEST PUSH1 0x0 DUP2 GT PUSH2 0x3C3 JUMPI PUSH1 0x40 MLOAD PUSH3 0x461BCD PUSH1 0xE5 SHL DUP2 MSTORE PUSH1 0x4 ADD PUSH2 0x141 SWAP1 PUSH2 0xB80 JUMP JUMPDEST PUSH1 0x0 DUP1 PUSH2 0x3CE PUSH2 0x771 JUMP JUMPDEST PUSH1 0x0 DUP1 SLOAD PUSH1 0x1 SLOAD SWAP4 SWAP6 POP SWAP2 SWAP4 POP PUSH1 0x1 PUSH1 0x1 PUSH1 0xA0 SHL SUB SWAP2 DUP3 AND SWAP3 SWAP1 SWAP2 AND SWAP1 PUSH2 0x3FC PUSH3 0xF4240 PUSH2 0x1BC DUP8 DUP10 PUSH2 0x995 JUMP JUMPDEST SWAP1 POP PUSH1 0x0 PUSH2 0x411 PUSH3 0xF4240 PUSH2 0x1BC DUP8 DUP11 PUSH2 0x995 JUMP JUMPDEST PUSH1 0x2 SLOAD SWAP1 SWAP2 POP PUSH2 0x421 SWAP1 DUP4 PUSH2 0x9C0 JUMP JUMPDEST PUSH1 0x2 SSTORE PUSH1 0x3 SLOAD PUSH2 0x431 SWAP1 DUP3 PUSH2 0x9C0 JUMP JUMPDEST PUSH1 0x3 SSTORE PUSH1 0x4 SLOAD PUSH2 0x441 SWAP1 DUP9 PUSH2 0x9C0 JUMP JUMPDEST PUSH1 0x4 SSTORE CALLER PUSH1 0x0 SWAP1 DUP2 MSTORE PUSH1 0x6 PUSH1 0x20 MSTORE PUSH1 0x40 SWAP1 KECCAK256 SLOAD PUSH2 0x45E SWAP1 DUP9 PUSH2 0x9C0 JUMP JUMPDEST CALLER PUSH1 0x0 DUP2 DUP2 MSTORE PUSH1 0x6 PUSH1 0x20 MSTORE PUSH1 0x40 SWAP1 DUP2 SWAP1 KECCAK256 SWAP3 SWAP1 SWAP3 SSTORE SWAP1 MLOAD PUSH4 0x23B872DD PUSH1 0xE0 SHL DUP2 MSTORE PUSH1 0x1 PUSH1 0x1 PUSH1 0xA0 SHL SUB DUP7 AND SWAP2 PUSH4 0x23B872DD SWAP2 PUSH2 0x4A1 SWAP2 SWAP1 ADDRESS SWAP1 DUP8 SWAP1 PUSH1 0x4 ADD PUSH2 0xB0C JUMP JUMPDEST PUSH1 0x20 PUSH1 0x40 MLOAD DUP1 DUP4 SUB DUP2 PUSH1 0x0 DUP8 DUP1 EXTCODESIZE ISZERO DUP1 ISZERO PUSH2 0x4BB JUMPI PUSH1 0x0 DUP1 REVERT JUMPDEST POP GAS CALL ISZERO DUP1 ISZERO PUSH2 0x4CF JUMPI RETURNDATASIZE PUSH1 0x0 DUP1 RETURNDATACOPY RETURNDATASIZE PUSH1 0x0 REVERT JUMPDEST POP POP POP POP PUSH1 0x40 MLOAD RETURNDATASIZE PUSH1 0x1F NOT PUSH1 0x1F DUP3 ADD AND DUP3 ADD DUP1 PUSH1 0x40 MSTORE POP DUP2 ADD SWAP1 PUSH2 0x4F3 SWAP2 SWAP1 PUSH2 0xA78 JUMP JUMPDEST PUSH2 0x50F JUMPI PUSH1 0x40 MLOAD PUSH3 0x461BCD PUSH1 0xE5 SHL DUP2 MSTORE PUSH1 0x4 ADD PUSH2 0x141 SWAP1 PUSH2 0xC06 JUMP JUMPDEST PUSH1 0x40 MLOAD PUSH4 0x23B872DD PUSH1 0xE0 SHL DUP2 MSTORE PUSH1 0x1 PUSH1 0x1 PUSH1 0xA0 SHL SUB DUP5 AND SWAP1 PUSH4 0x23B872DD SWAP1 PUSH2 0x30A SWAP1 CALLER SWAP1 ADDRESS SWAP1 DUP7 SWAP1 PUSH1 0x4 ADD PUSH2 0xB0C JUMP JUMPDEST PUSH1 0x5 SLOAD PUSH1 0xFF AND PUSH2 0x561 JUMPI PUSH1 0x40 MLOAD PUSH3 0x461BCD PUSH1 0xE5 SHL DUP2 MSTORE PUSH1 0x4 ADD PUSH2 0x141 SWAP1 PUSH2 0xC72 JUMP JUMPDEST PUSH1 0x0 PUSH2 0x56D DUP5 DUP4 PUSH2 0x9CC JUMP JUMPDEST SWAP1 POP DUP3 DUP2 LT ISZERO PUSH2 0x58F JUMPI PUSH1 0x40 MLOAD PUSH3 0x461BCD PUSH1 0xE5 SHL DUP2 MSTORE PUSH1 0x4 ADD PUSH2 0x141 SWAP1 PUSH2 0xD3C JUMP JUMPDEST PUSH1 0x0 DUP1 DUP1 DUP5 PUSH1 0x1 DUP2 GT ISZERO PUSH2 0x5B3 JUMPI PUSH4 0x4E487B71 PUSH1 0xE0 SHL PUSH1 0x0 MSTORE PUSH1 0x21 PUSH1 0x4 MSTORE PUSH1 0x24 PUSH1 0x0 REVERT JUMPDEST EQ ISZERO PUSH2 0x5F3 JUMPI PUSH1 0x2 SLOAD PUSH2 0x5C6 SWAP1 DUP8 PUSH2 0x9C0 JUMP JUMPDEST PUSH1 0x2 SSTORE PUSH1 0x3 SLOAD PUSH2 0x5D6 SWAP1 DUP5 PUSH2 0x9B4 JUMP JUMPDEST PUSH1 0x3 SSTORE POP POP PUSH1 0x0 SLOAD PUSH1 0x1 SLOAD PUSH1 0x1 PUSH1 0x1 PUSH1 0xA0 SHL SUB SWAP2 DUP3 AND SWAP2 AND PUSH2 0x629 JUMP JUMPDEST PUSH1 0x2 SLOAD PUSH2 0x600 SWAP1 DUP5 PUSH2 0x9B4 JUMP JUMPDEST PUSH1 0x2 SSTORE PUSH1 0x3 SLOAD PUSH2 0x610 SWAP1 DUP8 PUSH2 0x9C0 JUMP JUMPDEST PUSH1 0x3 SSTORE POP POP PUSH1 0x1 SLOAD PUSH1 0x0 SLOAD PUSH1 0x1 PUSH1 0x1 PUSH1 0xA0 SHL SUB SWAP2 DUP3 AND SWAP2 AND JUMPDEST PUSH1 0x40 MLOAD PUSH4 0xA9059CBB PUSH1 0xE0 SHL DUP2 MSTORE PUSH1 0x1 PUSH1 0x1 PUSH1 0xA0 SHL SUB DUP3 AND SWAP1 PUSH4 0xA9059CBB SWAP1 PUSH2 0x657 SWAP1 CALLER SWAP1 DUP8 SWAP1 PUSH1 0x4 ADD PUSH2 0xB30 JUMP JUMPDEST PUSH1 0x20 PUSH1 0x40 MLOAD DUP1 DUP4 SUB DUP2 PUSH1 0x0 DUP8 DUP1 EXTCODESIZE ISZERO DUP1 ISZERO PUSH2 0x671 JUMPI PUSH1 0x0 DUP1 REVERT JUMPDEST POP GAS CALL ISZERO DUP1 ISZERO PUSH2 0x685 JUMPI RETURNDATASIZE PUSH1 0x0 DUP1 RETURNDATACOPY RETURNDATASIZE PUSH1 0x0 REVERT JUMPDEST POP POP POP POP PUSH1 0x40 MLOAD RETURNDATASIZE PUSH1 0x1F NOT PUSH1 0x1F DUP3 ADD AND DUP3 ADD DUP1 PUSH1 0x40 MSTORE POP DUP2 ADD SWAP1 PUSH2 0x6A9 SWAP2 SWAP1 PUSH2 0xA78 JUMP JUMPDEST PUSH2 0x6C5 JUMPI PUSH1 0x40 MLOAD PUSH3 0x461BCD PUSH1 0xE5 SHL DUP2 MSTORE PUSH1 0x4 ADD PUSH2 0x141 SWAP1 PUSH2 0xD05 JUMP JUMPDEST PUSH1 0x40 MLOAD PUSH4 0x23B872DD PUSH1 0xE0 SHL DUP2 MSTORE PUSH1 0x1 PUSH1 0x1 PUSH1 0xA0 SHL SUB DUP4 AND SWAP1 PUSH4 0x23B872DD SWAP1 PUSH2 0x6F5 SWAP1 CALLER SWAP1 ADDRESS SWAP1 DUP12 SWAP1 PUSH1 0x4 ADD PUSH2 0xB0C JUMP JUMPDEST PUSH1 0x20 PUSH1 0x40 MLOAD DUP1 DUP4 SUB DUP2 PUSH1 0x0 DUP8 DUP1 EXTCODESIZE ISZERO DUP1 ISZERO PUSH2 0x70F JUMPI PUSH1 0x0 DUP1 REVERT JUMPDEST POP GAS CALL ISZERO DUP1 ISZERO PUSH2 0x723 JUMPI RETURNDATASIZE PUSH1 0x0 DUP1 RETURNDATACOPY RETURNDATASIZE PUSH1 0x0 REVERT JUMPDEST POP POP POP POP PUSH1 0x40 MLOAD RETURNDATASIZE PUSH1 0x1F NOT PUSH1 0x1F DUP3 ADD AND DUP3 ADD DUP1 PUSH1 0x40 MSTORE POP DUP2 ADD SWAP1 PUSH2 0x747 SWAP2 SWAP1 PUSH2 0xA78 JUMP JUMPDEST PUSH2 0x763 JUMPI PUSH1 0x40 MLOAD PUSH3 0x461BCD PUSH1 0xE5 SHL DUP2 MSTORE PUSH1 0x4 ADD PUSH2 0x141 SWAP1 PUSH2 0xD05 JUMP JUMPDEST POP POP POP POP POP POP JUMP JUMPDEST PUSH1 0x2 SLOAD DUP2 JUMP JUMPDEST PUSH1 0x0 DUP1 PUSH2 0x792 PUSH1 0x4 SLOAD PUSH2 0x1BC PUSH3 0xF4240 PUSH1 0x2 SLOAD PUSH2 0x995 SWAP1 SWAP2 SWAP1 PUSH4 0xFFFFFFFF AND JUMP JUMPDEST PUSH2 0x7B0 PUSH1 0x4 SLOAD PUSH2 0x1BC PUSH3 0xF4240 PUSH1 0x3 SLOAD PUSH2 0x995 SWAP1 SWAP2 SWAP1 PUSH4 0xFFFFFFFF AND JUMP JUMPDEST SWAP2 POP SWAP2 POP SWAP1 SWAP2 JUMP JUMPDEST PUSH1 0x4 SLOAD DUP2 JUMP JUMPDEST PUSH1 0x3 SLOAD DUP2 JUMP JUMPDEST PUSH1 0x5 SLOAD PUSH1 0xFF AND ISZERO PUSH2 0x7E7 JUMPI PUSH1 0x40 MLOAD PUSH3 0x461BCD PUSH1 0xE5 SHL DUP2 MSTORE PUSH1 0x4 ADD PUSH2 0x141 SWAP1 PUSH2 0xB49 JUMP JUMPDEST PUSH1 0x5 DUP1 SLOAD PUSH1 0xFF NOT AND PUSH1 0x1 SWAP1 DUP2 OR SWAP1 SWAP2 SSTORE PUSH1 0x0 SLOAD SWAP1 SLOAD PUSH1 0x40 MLOAD PUSH4 0x23B872DD PUSH1 0xE0 SHL DUP2 MSTORE PUSH1 0x1 PUSH1 0x1 PUSH1 0xA0 SHL SUB SWAP3 DUP4 AND SWAP3 SWAP2 SWAP1 SWAP2 AND SWAP1 DUP3 SWAP1 PUSH4 0x23B872DD SWAP1 PUSH2 0x834 SWAP1 CALLER SWAP1 ADDRESS SWAP1 DUP10 SWAP1 PUSH1 0x4 ADD PUSH2 0xB0C JUMP JUMPDEST PUSH1 0x20 PUSH1 0x40 MLOAD DUP1 DUP4 SUB DUP2 PUSH1 0x0 DUP8 DUP1 EXTCODESIZE ISZERO DUP1 ISZERO PUSH2 0x84E JUMPI PUSH1 0x0 DUP1 REVERT JUMPDEST POP GAS CALL ISZERO DUP1 ISZERO PUSH2 0x862 JUMPI RETURNDATASIZE PUSH1 0x0 DUP1 RETURNDATACOPY RETURNDATASIZE PUSH1 0x0 REVERT JUMPDEST POP POP POP POP PUSH1 0x40 MLOAD RETURNDATASIZE PUSH1 0x1F NOT PUSH1 0x1F DUP3 ADD AND DUP3 ADD DUP1 PUSH1 0x40 MSTORE POP DUP2 ADD SWAP1 PUSH2 0x886 SWAP2 SWAP1 PUSH2 0xA78 JUMP JUMPDEST PUSH2 0x8A2 JUMPI PUSH1 0x40 MLOAD PUSH3 0x461BCD PUSH1 0xE5 SHL DUP2 MSTORE PUSH1 0x4 ADD PUSH2 0x141 SWAP1 PUSH2 0xC06 JUMP JUMPDEST PUSH1 0x40 MLOAD PUSH4 0x23B872DD PUSH1 0xE0 SHL DUP2 MSTORE PUSH1 0x1 PUSH1 0x1 PUSH1 0xA0 SHL SUB DUP3 AND SWAP1 PUSH4 0x23B872DD SWAP1 PUSH2 0x8D2 SWAP1 CALLER SWAP1 ADDRESS SWAP1 DUP9 SWAP1 PUSH1 0x4 ADD PUSH2 0xB0C JUMP JUMPDEST PUSH1 0x20 PUSH1 0x40 MLOAD DUP1 DUP4 SUB DUP2 PUSH1 0x0 DUP8 DUP1 EXTCODESIZE ISZERO DUP1 ISZERO PUSH2 0x8EC JUMPI PUSH1 0x0 DUP1 REVERT JUMPDEST POP GAS CALL ISZERO DUP1 ISZERO PUSH2 0x900 JUMPI RETURNDATASIZE PUSH1 0x0 DUP1 RETURNDATACOPY RETURNDATASIZE PUSH1 0x0 REVERT JUMPDEST POP POP POP POP PUSH1 0x40 MLOAD RETURNDATASIZE PUSH1 0x1F NOT PUSH1 0x1F DUP3 ADD AND DUP3 ADD DUP1 PUSH1 0x40 MSTORE POP DUP2 ADD SWAP1 PUSH2 0x924 SWAP2 SWAP1 PUSH2 0xA78 JUMP JUMPDEST PUSH2 0x940 JUMPI PUSH1 0x40 MLOAD PUSH3 0x461BCD PUSH1 0xE5 SHL DUP2 MSTORE PUSH1 0x4 ADD PUSH2 0x141 SWAP1 PUSH2 0xBCF JUMP JUMPDEST PUSH1 0x2 SLOAD PUSH2 0x94D SWAP1 DUP6 PUSH2 0x9C0 JUMP JUMPDEST PUSH1 0x2 SSTORE PUSH1 0x3 SLOAD PUSH2 0x95D SWAP1 DUP5 PUSH2 0x9C0 JUMP JUMPDEST PUSH1 0x3 SSTORE PUSH1 0x4 DUP4 SWAP1 SSTORE CALLER PUSH1 0x0 SWAP1 DUP2 MSTORE PUSH1 0x6 PUSH1 0x20 MSTORE PUSH1 0x40 SWAP1 KECCAK256 SLOAD PUSH2 0x97F SWAP1 DUP5 PUSH2 0x9C0 JUMP JUMPDEST CALLER PUSH1 0x0 SWAP1 DUP2 MSTORE PUSH1 0x6 PUSH1 0x20 MSTORE PUSH1 0x40 SWAP1 KECCAK256 SSTORE POP POP POP POP JUMP JUMPDEST PUSH1 0x0 PUSH2 0x9A1 DUP3 DUP5 PUSH2 0xDE0 JUMP JUMPDEST SWAP4 SWAP3 POP POP POP JUMP JUMPDEST PUSH1 0x0 PUSH2 0x9A1 DUP3 DUP5 PUSH2 0xDC0 JUMP JUMPDEST PUSH1 0x0 PUSH2 0x9A1 DUP3 DUP5 PUSH2 0xDFF JUMP JUMPDEST PUSH1 0x0 PUSH2 0x9A1 DUP3 DUP5 PUSH2 0xDA8 JUMP JUMPDEST PUSH1 0x0 DUP1 DUP1 DUP4 PUSH1 0x1 DUP2 GT ISZERO PUSH2 0x9F0 JUMPI PUSH4 0x4E487B71 PUSH1 0xE0 SHL PUSH1 0x0 MSTORE PUSH1 0x21 PUSH1 0x4 MSTORE PUSH1 0x24 PUSH1 0x0 REVERT JUMPDEST EQ PUSH2 0x9FD JUMPI PUSH1 0x2 SLOAD PUSH2 0xA01 JUMP JUMPDEST PUSH1 0x3 SLOAD JUMPDEST SWAP1 POP PUSH1 0x0 DUP1 DUP5 PUSH1 0x1 DUP2 GT ISZERO PUSH2 0xA26 JUMPI PUSH4 0x4E487B71 PUSH1 0xE0 SHL PUSH1 0x0 MSTORE PUSH1 0x21 PUSH1 0x4 MSTORE PUSH1 0x24 PUSH1 0x0 REVERT JUMPDEST EQ PUSH2 0xA33 JUMPI PUSH1 0x3 SLOAD PUSH2 0xA37 JUMP JUMPDEST PUSH1 0x2 SLOAD JUMPDEST SWAP1 POP PUSH1 0x0 PUSH1 0x2 SLOAD PUSH1 0x3 SLOAD PUSH2 0xA4B SWAP2 SWAP1 PUSH2 0xDE0 JUMP JUMPDEST SWAP1 POP PUSH1 0x0 PUSH2 0xA6D PUSH2 0xA66 PUSH2 0xA5F DUP10 DUP7 PUSH2 0xDA8 JUMP JUMPDEST DUP5 SWAP1 PUSH2 0x9A8 JUMP JUMPDEST DUP6 SWAP1 PUSH2 0x9B4 JUMP JUMPDEST SWAP8 SWAP7 POP POP POP POP POP POP POP JUMP JUMPDEST PUSH1 0x0 PUSH1 0x20 DUP3 DUP5 SUB SLT ISZERO PUSH2 0xA89 JUMPI DUP1 DUP2 REVERT JUMPDEST DUP2 MLOAD DUP1 ISZERO ISZERO DUP2 EQ PUSH2 0x9A1 JUMPI DUP2 DUP3 REVERT JUMPDEST PUSH1 0x0 PUSH1 0x20 DUP3 DUP5 SUB SLT ISZERO PUSH2 0xAA9 JUMPI DUP1 DUP2 REVERT JUMPDEST POP CALLDATALOAD SWAP2 SWAP1 POP JUMP JUMPDEST PUSH1 0x0 DUP1 PUSH1 0x40 DUP4 DUP6 SUB SLT ISZERO PUSH2 0xAC2 JUMPI DUP1 DUP2 REVERT JUMPDEST POP POP DUP1 CALLDATALOAD SWAP3 PUSH1 0x20 SWAP1 SWAP2 ADD CALLDATALOAD SWAP2 POP JUMP JUMPDEST PUSH1 0x0 DUP1 PUSH1 0x0 PUSH1 0x60 DUP5 DUP7 SUB SLT ISZERO PUSH2 0xAE5 JUMPI DUP1 DUP2 REVERT JUMPDEST DUP4 CALLDATALOAD SWAP3 POP PUSH1 0x20 DUP5 ADD CALLDATALOAD SWAP2 POP PUSH1 0x40 DUP5 ADD CALLDATALOAD PUSH1 0x2 DUP2 LT PUSH2 0xB01 JUMPI DUP2 DUP3 REVERT JUMPDEST DUP1 SWAP2 POP POP SWAP3 POP SWAP3 POP SWAP3 JUMP JUMPDEST PUSH1 0x1 PUSH1 0x1 PUSH1 0xA0 SHL SUB SWAP4 DUP5 AND DUP2 MSTORE SWAP2 SWAP1 SWAP3 AND PUSH1 0x20 DUP3 ADD MSTORE PUSH1 0x40 DUP2 ADD SWAP2 SWAP1 SWAP2 MSTORE PUSH1 0x60 ADD SWAP1 JUMP JUMPDEST PUSH1 0x1 PUSH1 0x1 PUSH1 0xA0 SHL SUB SWAP3 SWAP1 SWAP3 AND DUP3 MSTORE PUSH1 0x20 DUP3 ADD MSTORE PUSH1 0x40 ADD SWAP1 JUMP JUMPDEST PUSH1 0x20 DUP1 DUP3 MSTORE PUSH1 0x1E SWAP1 DUP3 ADD MSTORE PUSH32 0x54686520706F6F6C2077617320616C726561647920696E697469617465640000 PUSH1 0x40 DUP3 ADD MSTORE PUSH1 0x60 ADD SWAP1 JUMP JUMPDEST PUSH1 0x20 DUP1 DUP3 MSTORE PUSH1 0x2F SWAP1 DUP3 ADD MSTORE PUSH32 0x54686520616D6F756E74206F6620737570706C696564206C7020746F6B656E73 PUSH1 0x40 DUP3 ADD MSTORE PUSH15 0x1039B437BAB632103132901F101817 PUSH1 0x89 SHL PUSH1 0x60 DUP3 ADD MSTORE PUSH1 0x80 ADD SWAP1 JUMP JUMPDEST PUSH1 0x20 DUP1 DUP3 MSTORE PUSH1 0x18 SWAP1 DUP3 ADD MSTORE PUSH32 0x5553444320616D6F756E7420756E617661696C61626C652E0000000000000000 PUSH1 0x40 DUP3 ADD MSTORE PUSH1 0x60 ADD SWAP1 JUMP JUMPDEST PUSH1 0x20 DUP1 DUP3 MSTORE PUSH1 0x18 SWAP1 DUP3 ADD MSTORE PUSH32 0x4C696E6B20616D6F756E7420756E617661696C61626C652E0000000000000000 PUSH1 0x40 DUP3 ADD MSTORE PUSH1 0x60 ADD SWAP1 JUMP JUMPDEST PUSH1 0x20 DUP1 DUP3 MSTORE DUP2 DUP2 ADD MSTORE PUSH32 0x596F7520646F6E2774206861766520656E6F756768204C5020746F6B656E732E PUSH1 0x40 DUP3 ADD MSTORE PUSH1 0x60 ADD SWAP1 JUMP JUMPDEST PUSH1 0x20 DUP1 DUP3 MSTORE PUSH1 0x23 SWAP1 DUP3 ADD MSTORE PUSH32 0x54686520706F6F6C2073686F756C6420626520696E6974696174656420666972 PUSH1 0x40 DUP3 ADD MSTORE PUSH3 0x39BA17 PUSH1 0xE9 SHL PUSH1 0x60 DUP3 ADD MSTORE PUSH1 0x80 ADD SWAP1 JUMP JUMPDEST PUSH1 0x20 DUP1 DUP3 MSTORE PUSH1 0x30 SWAP1 DUP3 ADD MSTORE PUSH32 0x54686520616D6F756E74206F6620726571756573746564206C7020746F6B656E PUSH1 0x40 DUP3 ADD MSTORE PUSH16 0x399039B437BAB632103132901F101817 PUSH1 0x81 SHL PUSH1 0x60 DUP3 ADD MSTORE PUSH1 0x80 ADD SWAP1 JUMP JUMPDEST PUSH1 0x20 DUP1 DUP3 MSTORE PUSH1 0x19 SWAP1 DUP3 ADD MSTORE PUSH32 0x546F6B656E20616D6F756E7420756E617661696C61626C652E00000000000000 PUSH1 0x40 DUP3 ADD MSTORE PUSH1 0x60 ADD SWAP1 JUMP JUMPDEST PUSH1 0x20 DUP1 DUP3 MSTORE PUSH1 0x35 SWAP1 DUP3 ADD MSTORE PUSH32 0x54686520616D6F756E74206F662070757263686173656420746F6B656E206973 PUSH1 0x40 DUP3 ADD MSTORE PUSH21 0x103637BBB2B9103A3430B7103932B8BAB4B932B217 PUSH1 0x59 SHL PUSH1 0x60 DUP3 ADD MSTORE PUSH1 0x80 ADD SWAP1 JUMP JUMPDEST SWAP1 DUP2 MSTORE PUSH1 0x20 ADD SWAP1 JUMP JUMPDEST SWAP2 DUP3 MSTORE PUSH1 0x20 DUP3 ADD MSTORE PUSH1 0x40 ADD SWAP1 JUMP JUMPDEST PUSH1 0x0 DUP3 NOT DUP3 GT ISZERO PUSH2 0xDBB JUMPI PUSH2 0xDBB PUSH2 0xE16 JUMP JUMPDEST POP ADD SWAP1 JUMP JUMPDEST PUSH1 0x0 DUP3 PUSH2 0xDDB JUMPI PUSH4 0x4E487B71 PUSH1 0xE0 SHL DUP2 MSTORE PUSH1 0x12 PUSH1 0x4 MSTORE PUSH1 0x24 DUP2 REVERT JUMPDEST POP DIV SWAP1 JUMP JUMPDEST PUSH1 0x0 DUP2 PUSH1 0x0 NOT DIV DUP4 GT DUP3 ISZERO ISZERO AND ISZERO PUSH2 0xDFA JUMPI PUSH2 0xDFA PUSH2 0xE16 JUMP JUMPDEST POP MUL SWAP1 JUMP JUMPDEST PUSH1 0x0 DUP3 DUP3 LT ISZERO PUSH2 0xE11 JUMPI PUSH2 0xE11 PUSH2 0xE16 JUMP JUMPDEST POP SUB SWAP1 JUMP JUMPDEST PUSH4 0x4E487B71 PUSH1 0xE0 SHL PUSH1 0x0 MSTORE PUSH1 0x11 PUSH1 0x4 MSTORE PUSH1 0x24 PUSH1 0x0 REVERT INVALID LOG2 PUSH5 0x6970667358 0x22 SLT KECCAK256 0x2B LOG2 0xF9 NOT DUP5 SHL 0x21 SLT DUP11 SHL LOG3 PUSH12 0x286144A78E5481BC6DB9F2D1 0xA6 SWAP11 PUSH1 0x99 RETURNDATACOPY 0xDC PUSH30 0xC464736F6C63430008000033000000000000000000000000000000000000 ","sha1":"84c8b0e796243702017ea4101d5e537f5c160bf4","source":"// SPDX-License-Identifier: UNLICENSED\n\npragma solidity ^0.8.0;\n\nimport \"@openzeppelin/contracts/utils/math/SafeMath.sol\";\n\n\ninterface IERC20 {\n    function transfer(address recipient, uint256 amount) external returns (bool);\n    function transferFrom(address sender, address recipient, uint256 amount) external returns (bool);\n    function approve(address spender, uint256 amount) external returns (bool);\n}\n\n\ncontract SimpleSwap{\n    using SafeMath for uint256;\n\n    enum Tokens{Link, USDC}\n\n    address addressLink = 0xa36085F69e2889c224210F603D836748e7dC0088;   //Kovan address      //0x01BE23585060835E02B77ef475b0Cc51aA1e0709; rinkeby\n    address addressUSDC = 0xb7a4F3E9097C08dA09517b5aB877F7a917224ede;    //Kovan address            //0xeb8f08a975Ab53E34D8a0330E0D34de942C95926; rinkeby\n\n    uint256 public totalAvailableLink = 0;      //18 decimals\n    uint256 public totalAvailableUSDC = 0;       //6 decimals\n\n    uint256 public totalLpTokens = 0;               //6 decimals\n\n    bool isPoolInitiated = false;\n\n    mapping(address => uint256) userToAmountLpTokens;\n\n\n    function initiatePool(uint256 amountLinkToSupply, uint256 amountUsdcToSupply) public {\n        require(!isPoolInitiated, \"The pool was already initiated\");\n        isPoolInitiated = true;\n        IERC20 Link = IERC20(addressLink);\n        IERC20 USDC = IERC20(addressUSDC);\n\n        require(Link.transferFrom(msg.sender, address(this), amountLinkToSupply), \"Link amount unavailable.\");\n        require(USDC.transferFrom(msg.sender, address(this), amountUsdcToSupply), \"USDC amount unavailable.\");\n\n        totalAvailableLink = totalAvailableLink.add(amountLinkToSupply);\n        totalAvailableUSDC = totalAvailableUSDC.add(amountUsdcToSupply);\n\n        totalLpTokens = amountUsdcToSupply;\n\n        userToAmountLpTokens[msg.sender] = userToAmountLpTokens[msg.sender].add(totalLpTokens);\n    }\n\n\n    // Basic check: Done\n    function swap(uint256 quantitySoldToken, uint256 minAmountPurchasedToken, Tokens tokenForSale) public {\n        require(isPoolInitiated, \"The pool should be initiated first.\");\n        uint256 amountPurchasedToken = getAmountPurchasedToken(quantitySoldToken, tokenForSale);\n        require(amountPurchasedToken >= minAmountPurchasedToken, \"The amount of purchased token is lower than required.\");\n\n        IERC20 soldToken;\n        IERC20 boughtToken;\n\n        if (tokenForSale == Tokens.Link) {\n            totalAvailableLink  = totalAvailableLink.add(quantitySoldToken);\n            totalAvailableUSDC = totalAvailableUSDC.sub(amountPurchasedToken);\n\n            soldToken = IERC20(addressLink);\n            boughtToken = IERC20(addressUSDC);\n        }\n\n        else {\n            totalAvailableLink = totalAvailableLink.sub(amountPurchasedToken);\n            totalAvailableUSDC = totalAvailableUSDC.add(quantitySoldToken);\n\n            soldToken = IERC20(addressUSDC); \n            boughtToken = IERC20(addressLink);\n        }\n        \n        require(boughtToken.transfer(msg.sender, amountPurchasedToken), \"Token amount unavailable.\");\n        require(soldToken.transferFrom(msg.sender, address(this), quantitySoldToken), \"Token amount unavailable.\");\n\n    }\n\n    // Basic check: Done\n    function supply(uint256 amountLpTokens) public {\n        require(isPoolInitiated, \"The pool should be initiated first.\");\n        require(amountLpTokens > 0, \"The amount of supplied lp tokens should be > 0.\");\n        (uint256 amountLinkPerLpToken, uint256 amountUsdcPerLpToken) = getLpTokenPrice();\n\n        IERC20 Link = IERC20(addressLink);\n        IERC20 USDC = IERC20(addressUSDC);\n\n        uint256 amountLinkToSupply = amountLinkPerLpToken.mul(amountLpTokens).div(10 ** 6); // 18 decimals\n        uint256 amountUSDCToSupply = amountUsdcPerLpToken.mul(amountLpTokens).div(10 ** 6); // 6 decimals\n\n        totalAvailableLink = totalAvailableLink.add(amountLinkToSupply);\n        totalAvailableUSDC = totalAvailableUSDC.add(amountUSDCToSupply);\n\n        totalLpTokens = totalLpTokens.add(amountLpTokens);\n\n        userToAmountLpTokens[msg.sender] = userToAmountLpTokens[msg.sender].add(amountLpTokens);\n\n        require(Link.transferFrom(msg.sender, address(this), amountLinkToSupply), \"Link amount unavailable.\");\n        require(USDC.transferFrom(msg.sender, address(this), amountUSDCToSupply), \"USDC amount unavailable.\");\n    }\n\n\n    // Basic check: Done\n    function withdraw(uint256 amountLpTokens) public {\n        require(isPoolInitiated, \"The pool should be initiated first.\");\n        require(amountLpTokens > 0, \"The amount of requested lp tokens should be > 0.\");\n        require(userToAmountLpTokens[msg.sender] >= amountLpTokens, \"You don't have enough LP tokens.\");\n        (uint256 amountLinkPerLpToken, uint256 amountUSDCPerLpToken)  = getLpTokenPrice();\n\n        uint256 amountLinkToWithdraw = amountLinkPerLpToken.mul(amountLpTokens).div(10 ** 6);\n        uint256 amountUSDCToWithdraw = amountUSDCPerLpToken.mul(amountLpTokens).div(10 ** 6);\n\n        totalAvailableLink = totalAvailableLink.sub(amountLinkToWithdraw);\n        totalAvailableUSDC = totalAvailableUSDC.sub(amountUSDCToWithdraw);\n\n        totalLpTokens = totalLpTokens.sub(amountLpTokens);\n\n        userToAmountLpTokens[msg.sender] = userToAmountLpTokens[msg.sender].sub(amountLpTokens);\n\n        IERC20 Link = IERC20(addressLink);\n        IERC20 USDC = IERC20(addressUSDC);\n\n        require(Link.transfer(msg.sender, amountLinkToWithdraw), \"Link amount unavailable.\");\n        require(USDC.transfer(msg.sender, amountUSDCToWithdraw), \"USDC amount unavailable.\");\n\n    }\n\n\n\n//////////////////////////////////////////////////////////////////////////////////////////////////////////////////////////////////////////////////\n    // Link - USDC                      // 6 decimals\n    function getAmountPurchasedToken(uint256 amount, Tokens tokenForSale) internal view returns(uint256)\n    {\n        uint256 y = (tokenForSale == Tokens.Link) ? totalAvailableUSDC : totalAvailableLink;\n        uint256 x = (tokenForSale == Tokens.Link) ? totalAvailableLink : totalAvailableUSDC;\n\n        uint256 C = totalAvailableUSDC * totalAvailableLink;         // 24 decimals\n        uint256 amountPurchasedTokens = y.sub(C.div(x + amount)); // 6 or 18 decimals\n\n        return amountPurchasedTokens;\n    }\n\n\n\n    function getLpTokenPrice() public view returns(uint256, uint256) \n    {\n        return (totalAvailableLink.mul(10 ** 6).div(totalLpTokens), totalAvailableUSDC.mul(10 ** 6).div(totalLpTokens));\n    }\n\n\n}\n\n\n","sourcePath":"contracts/SimpleSwap.sol","type":"contract","deployment":{"address":"0x83A40490dA7D23Bc9E67E0eA9ddEc7D173515fa4","chainid":"42","blockHeight":32234246}}