{"abi":[{"inputs":[{"internalType":"uint256","name":"amountLpTokens","type":"uint256"}],"name":"supply","outputs":[],"stateMutability":"nonpayable","type":"function"},{"inputs":[{"internalType":"uint256","name":"quantitySoldToken","type":"uint256"},{"internalType":"uint256","name":"minAmountPurchasedToken","type":"uint256"},{"internalType":"enum SimpleSwap.Tokens","name":"tokenForSale","type":"uint8"}],"name":"swap","outputs":[],"stateMutability":"nonpayable","type":"function"},{"inputs":[{"internalType":"uint256","name":"amountLpTokens","type":"uint256"}],"name":"withdraw","outputs":[],"stateMutability":"nonpayable","type":"function"}],"bytecode":"6080604052600080546001600160a01b031990811673a36085f69e2889c224210f603d836748e7dc00881782556001805490911673b7a4f3e9097c08da09517b5ab877f7a917224ede1790556002819055600381905560045534801561006457600080fd5b506109b2806100746000396000f3fe608060405234801561001057600080fd5b50600436106100415760003560e01c80632e1a7d4d14610046578063354030231461005b5780635c36d25e1461006e575b600080fd5b610059610054366004610739565b610081565b005b610059610069366004610739565b61028d565b61005961007c366004610751565b6103fb565b336000908152600560205260409020548111156100b95760405162461bcd60e51b81526004016100b090610837565b60405180910390fd5b6000806100c4610605565b909250905060006100d58385610636565b905060006100e38386610636565b6002549091506100f39083610649565b6002556003546101039082610649565b6003556004546101139086610649565b600455336000908152600560205260409020546101309086610649565b336000818152600560205260408082209390935554600154925163a9059cbb60e01b81526001600160a01b039182169390911691839163a9059cbb9161017a9188906004016107b0565b602060405180830381600087803b15801561019457600080fd5b505af11580156101a8573d6000803e3d6000fd5b505050506040513d601f19601f820116820180604052508101906101cc9190610719565b6101e85760405162461bcd60e51b81526004016100b090610800565b60405163a9059cbb60e01b81526001600160a01b0382169063a9059cbb9061021690339087906004016107b0565b602060405180830381600087803b15801561023057600080fd5b505af1158015610244573d6000803e3d6000fd5b505050506040513d601f19601f820116820180604052508101906102689190610719565b6102845760405162461bcd60e51b81526004016100b0906107c9565b50505050505050565b600080610298610605565b600080546001549395509193506001600160a01b0391821692909116906102bf8587610636565b905060006102cd8588610636565b6002549091506102dd9083610655565b6002556003546102ed9082610655565b6003556004546102fd9088610655565b6004553360009081526005602052604090205461031a9088610655565b33600081815260056020526040908190209290925590516323b872dd60e01b81526001600160a01b038616916323b872dd9161035d91903090879060040161078c565b602060405180830381600087803b15801561037757600080fd5b505af115801561038b573d6000803e3d6000fd5b505050506040513d601f19601f820116820180604052508101906103af9190610719565b6103cb5760405162461bcd60e51b81526004016100b090610800565b6040516323b872dd60e01b81526001600160a01b038416906323b872dd906102169033903090869060040161078c565b60006104078483610661565b9050828110156104295760405162461bcd60e51b81526004016100b0906108a3565b6000808084600181111561044d57634e487b7160e01b600052602160045260246000fd5b141561048d576002546104609087610655565b6002556003546104709084610649565b60035550506000546001546001600160a01b0391821691166104c3565b60025461049a9084610649565b6002556003546104aa9087610655565b60035550506001546000546001600160a01b0391821691165b60405163a9059cbb60e01b81526001600160a01b0382169063a9059cbb906104f190339087906004016107b0565b602060405180830381600087803b15801561050b57600080fd5b505af115801561051f573d6000803e3d6000fd5b505050506040513d601f19601f820116820180604052508101906105439190610719565b61055f5760405162461bcd60e51b81526004016100b09061086c565b6040516323b872dd60e01b81526001600160a01b038316906323b872dd9061058f90339030908b9060040161078c565b602060405180830381600087803b1580156105a957600080fd5b505af11580156105bd573d6000803e3d6000fd5b505050506040513d601f19601f820116820180604052508101906105e19190610719565b6105fd5760405162461bcd60e51b81526004016100b09061086c565b505050505050565b60008061061f60045460025461070d90919063ffffffff16565b60045460035461062e9161070d565b915091509091565b60006106428284610930565b9392505050565b6000610642828461094f565b600061064282846108f8565b6000808083600181111561068557634e487b7160e01b600052602160045260246000fd5b1461069257600254610696565b6003545b90506000808460018111156106bb57634e487b7160e01b600052602160045260246000fd5b146106c8576003546106cc565b6002545b905060006002546003546106e09190610930565b905060006107026106fb6106f489866108f8565b849061070d565b8590610649565b979650505050505050565b60006106428284610910565b60006020828403121561072a578081fd5b81518015158114610642578182fd5b60006020828403121561074a578081fd5b5035919050565b600080600060608486031215610765578182fd5b8335925060208401359150604084013560028110610781578182fd5b809150509250925092565b6001600160a01b039384168152919092166020820152604081019190915260600190565b6001600160a01b03929092168252602082015260400190565b60208082526018908201527f5553444320616d6f756e7420756e617661696c61626c652e0000000000000000604082015260600190565b60208082526018908201527f4c696e6b20616d6f756e7420756e617661696c61626c652e0000000000000000604082015260600190565b6020808252818101527f596f7520646f6e2774206861766520656e6f756768204c5020746f6b656e732e604082015260600190565b60208082526019908201527f546f6b656e20616d6f756e7420756e617661696c61626c652e00000000000000604082015260600190565b60208082526035908201527f54686520616d6f756e74206f662070757263686173656420746f6b656e206973604082015274103637bbb2b9103a3430b7103932b8bab4b932b21760591b606082015260800190565b6000821982111561090b5761090b610966565b500190565b60008261092b57634e487b7160e01b81526012600452602481fd5b500490565b600081600019048311821515161561094a5761094a610966565b500290565b60008282101561096157610961610966565b500390565b634e487b7160e01b600052601160045260246000fdfea2646970667358221220ff45fc4898ce8022b7523275b89c01398ded97a595916749ed5e353960d0cc5064736f6c63430008000033","bytecodeSha1":"b411cd1cb5ffd352cbd84f3d79457aaf87c45afd","compiler":{"evm_version":"istanbul","optimizer":{"enabled":true,"runs":200},"version":"0.8.0+commit.c7dfd78e"},"contractName":"SimpleSwap","language":"Solidity","natspec":{"kind":"dev","methods":{},"version":1},"opcodes":"PUSH1 0x80 PUSH1 0x40 MSTORE CALLVALUE DUP1 ISZERO PUSH2 0x10 JUMPI PUSH1 0x0 DUP1 REVERT JUMPDEST POP PUSH1 0x4 CALLDATASIZE LT PUSH2 0x41 JUMPI PUSH1 0x0 CALLDATALOAD PUSH1 0xE0 SHR DUP1 PUSH4 0x2E1A7D4D EQ PUSH2 0x46 JUMPI DUP1 PUSH4 0x35403023 EQ PUSH2 0x5B JUMPI DUP1 PUSH4 0x5C36D25E EQ PUSH2 0x6E JUMPI JUMPDEST PUSH1 0x0 DUP1 REVERT JUMPDEST PUSH2 0x59 PUSH2 0x54 CALLDATASIZE PUSH1 0x4 PUSH2 0x739 JUMP JUMPDEST PUSH2 0x81 JUMP JUMPDEST STOP JUMPDEST PUSH2 0x59 PUSH2 0x69 CALLDATASIZE PUSH1 0x4 PUSH2 0x739 JUMP JUMPDEST PUSH2 0x28D JUMP JUMPDEST PUSH2 0x59 PUSH2 0x7C CALLDATASIZE PUSH1 0x4 PUSH2 0x751 JUMP JUMPDEST PUSH2 0x3FB JUMP JUMPDEST CALLER PUSH1 0x0 SWAP1 DUP2 MSTORE PUSH1 0x5 PUSH1 0x20 MSTORE PUSH1 0x40 SWAP1 KECCAK256 SLOAD DUP2 GT ISZERO PUSH2 0xB9 JUMPI PUSH1 0x40 MLOAD PUSH3 0x461BCD PUSH1 0xE5 SHL DUP2 MSTORE PUSH1 0x4 ADD PUSH2 0xB0 SWAP1 PUSH2 0x837 JUMP JUMPDEST PUSH1 0x40 MLOAD DUP1 SWAP2 SUB SWAP1 REVERT JUMPDEST PUSH1 0x0 DUP1 PUSH2 0xC4 PUSH2 0x605 JUMP JUMPDEST SWAP1 SWAP3 POP SWAP1 POP PUSH1 0x0 PUSH2 0xD5 DUP4 DUP6 PUSH2 0x636 JUMP JUMPDEST SWAP1 POP PUSH1 0x0 PUSH2 0xE3 DUP4 DUP7 PUSH2 0x636 JUMP JUMPDEST PUSH1 0x2 SLOAD SWAP1 SWAP2 POP PUSH2 0xF3 SWAP1 DUP4 PUSH2 0x649 JUMP JUMPDEST PUSH1 0x2 SSTORE PUSH1 0x3 SLOAD PUSH2 0x103 SWAP1 DUP3 PUSH2 0x649 JUMP JUMPDEST PUSH1 0x3 SSTORE PUSH1 0x4 SLOAD PUSH2 0x113 SWAP1 DUP7 PUSH2 0x649 JUMP JUMPDEST PUSH1 0x4 SSTORE CALLER PUSH1 0x0 SWAP1 DUP2 MSTORE PUSH1 0x5 PUSH1 0x20 MSTORE PUSH1 0x40 SWAP1 KECCAK256 SLOAD PUSH2 0x130 SWAP1 DUP7 PUSH2 0x649 JUMP JUMPDEST CALLER PUSH1 0x0 DUP2 DUP2 MSTORE PUSH1 0x5 PUSH1 0x20 MSTORE PUSH1 0x40 DUP1 DUP3 KECCAK256 SWAP4 SWAP1 SWAP4 SSTORE SLOAD PUSH1 0x1 SLOAD SWAP3 MLOAD PUSH4 0xA9059CBB PUSH1 0xE0 SHL DUP2 MSTORE PUSH1 0x1 PUSH1 0x1 PUSH1 0xA0 SHL SUB SWAP2 DUP3 AND SWAP4 SWAP1 SWAP2 AND SWAP2 DUP4 SWAP2 PUSH4 0xA9059CBB SWAP2 PUSH2 0x17A SWAP2 DUP9 SWAP1 PUSH1 0x4 ADD PUSH2 0x7B0 JUMP JUMPDEST PUSH1 0x20 PUSH1 0x40 MLOAD DUP1 DUP4 SUB DUP2 PUSH1 0x0 DUP8 DUP1 EXTCODESIZE ISZERO DUP1 ISZERO PUSH2 0x194 JUMPI PUSH1 0x0 DUP1 REVERT JUMPDEST POP GAS CALL ISZERO DUP1 ISZERO PUSH2 0x1A8 JUMPI RETURNDATASIZE PUSH1 0x0 DUP1 RETURNDATACOPY RETURNDATASIZE PUSH1 0x0 REVERT JUMPDEST POP POP POP POP PUSH1 0x40 MLOAD RETURNDATASIZE PUSH1 0x1F NOT PUSH1 0x1F DUP3 ADD AND DUP3 ADD DUP1 PUSH1 0x40 MSTORE POP DUP2 ADD SWAP1 PUSH2 0x1CC SWAP2 SWAP1 PUSH2 0x719 JUMP JUMPDEST PUSH2 0x1E8 JUMPI PUSH1 0x40 MLOAD PUSH3 0x461BCD PUSH1 0xE5 SHL DUP2 MSTORE PUSH1 0x4 ADD PUSH2 0xB0 SWAP1 PUSH2 0x800 JUMP JUMPDEST PUSH1 0x40 MLOAD PUSH4 0xA9059CBB PUSH1 0xE0 SHL DUP2 MSTORE PUSH1 0x1 PUSH1 0x1 PUSH1 0xA0 SHL SUB DUP3 AND SWAP1 PUSH4 0xA9059CBB SWAP1 PUSH2 0x216 SWAP1 CALLER SWAP1 DUP8 SWAP1 PUSH1 0x4 ADD PUSH2 0x7B0 JUMP JUMPDEST PUSH1 0x20 PUSH1 0x40 MLOAD DUP1 DUP4 SUB DUP2 PUSH1 0x0 DUP8 DUP1 EXTCODESIZE ISZERO DUP1 ISZERO PUSH2 0x230 JUMPI PUSH1 0x0 DUP1 REVERT JUMPDEST POP GAS CALL ISZERO DUP1 ISZERO PUSH2 0x244 JUMPI RETURNDATASIZE PUSH1 0x0 DUP1 RETURNDATACOPY RETURNDATASIZE PUSH1 0x0 REVERT JUMPDEST POP POP POP POP PUSH1 0x40 MLOAD RETURNDATASIZE PUSH1 0x1F NOT PUSH1 0x1F DUP3 ADD AND DUP3 ADD DUP1 PUSH1 0x40 MSTORE POP DUP2 ADD SWAP1 PUSH2 0x268 SWAP2 SWAP1 PUSH2 0x719 JUMP JUMPDEST PUSH2 0x284 JUMPI PUSH1 0x40 MLOAD PUSH3 0x461BCD PUSH1 0xE5 SHL DUP2 MSTORE PUSH1 0x4 ADD PUSH2 0xB0 SWAP1 PUSH2 0x7C9 JUMP JUMPDEST POP POP POP POP POP POP POP JUMP JUMPDEST PUSH1 0x0 DUP1 PUSH2 0x298 PUSH2 0x605 JUMP JUMPDEST PUSH1 0x0 DUP1 SLOAD PUSH1 0x1 SLOAD SWAP4 SWAP6 POP SWAP2 SWAP4 POP PUSH1 0x1 PUSH1 0x1 PUSH1 0xA0 SHL SUB SWAP2 DUP3 AND SWAP3 SWAP1 SWAP2 AND SWAP1 PUSH2 0x2BF DUP6 DUP8 PUSH2 0x636 JUMP JUMPDEST SWAP1 POP PUSH1 0x0 PUSH2 0x2CD DUP6 DUP9 PUSH2 0x636 JUMP JUMPDEST PUSH1 0x2 SLOAD SWAP1 SWAP2 POP PUSH2 0x2DD SWAP1 DUP4 PUSH2 0x655 JUMP JUMPDEST PUSH1 0x2 SSTORE PUSH1 0x3 SLOAD PUSH2 0x2ED SWAP1 DUP3 PUSH2 0x655 JUMP JUMPDEST PUSH1 0x3 SSTORE PUSH1 0x4 SLOAD PUSH2 0x2FD SWAP1 DUP9 PUSH2 0x655 JUMP JUMPDEST PUSH1 0x4 SSTORE CALLER PUSH1 0x0 SWAP1 DUP2 MSTORE PUSH1 0x5 PUSH1 0x20 MSTORE PUSH1 0x40 SWAP1 KECCAK256 SLOAD PUSH2 0x31A SWAP1 DUP9 PUSH2 0x655 JUMP JUMPDEST CALLER PUSH1 0x0 DUP2 DUP2 MSTORE PUSH1 0x5 PUSH1 0x20 MSTORE PUSH1 0x40 SWAP1 DUP2 SWAP1 KECCAK256 SWAP3 SWAP1 SWAP3 SSTORE SWAP1 MLOAD PUSH4 0x23B872DD PUSH1 0xE0 SHL DUP2 MSTORE PUSH1 0x1 PUSH1 0x1 PUSH1 0xA0 SHL SUB DUP7 AND SWAP2 PUSH4 0x23B872DD SWAP2 PUSH2 0x35D SWAP2 SWAP1 ADDRESS SWAP1 DUP8 SWAP1 PUSH1 0x4 ADD PUSH2 0x78C JUMP JUMPDEST PUSH1 0x20 PUSH1 0x40 MLOAD DUP1 DUP4 SUB DUP2 PUSH1 0x0 DUP8 DUP1 EXTCODESIZE ISZERO DUP1 ISZERO PUSH2 0x377 JUMPI PUSH1 0x0 DUP1 REVERT JUMPDEST POP GAS CALL ISZERO DUP1 ISZERO PUSH2 0x38B JUMPI RETURNDATASIZE PUSH1 0x0 DUP1 RETURNDATACOPY RETURNDATASIZE PUSH1 0x0 REVERT JUMPDEST POP POP POP POP PUSH1 0x40 MLOAD RETURNDATASIZE PUSH1 0x1F NOT PUSH1 0x1F DUP3 ADD AND DUP3 ADD DUP1 PUSH1 0x40 MSTORE POP DUP2 ADD SWAP1 PUSH2 0x3AF SWAP2 SWAP1 PUSH2 0x719 JUMP JUMPDEST PUSH2 0x3CB JUMPI PUSH1 0x40 MLOAD PUSH3 0x461BCD PUSH1 0xE5 SHL DUP2 MSTORE PUSH1 0x4 ADD PUSH2 0xB0 SWAP1 PUSH2 0x800 JUMP JUMPDEST PUSH1 0x40 MLOAD PUSH4 0x23B872DD PUSH1 0xE0 SHL DUP2 MSTORE PUSH1 0x1 PUSH1 0x1 PUSH1 0xA0 SHL SUB DUP5 AND SWAP1 PUSH4 0x23B872DD SWAP1 PUSH2 0x216 SWAP1 CALLER SWAP1 ADDRESS SWAP1 DUP7 SWAP1 PUSH1 0x4 ADD PUSH2 0x78C JUMP JUMPDEST PUSH1 0x0 PUSH2 0x407 DUP5 DUP4 PUSH2 0x661 JUMP JUMPDEST SWAP1 POP DUP3 DUP2 LT ISZERO PUSH2 0x429 JUMPI PUSH1 0x40 MLOAD PUSH3 0x461BCD PUSH1 0xE5 SHL DUP2 MSTORE PUSH1 0x4 ADD PUSH2 0xB0 SWAP1 PUSH2 0x8A3 JUMP JUMPDEST PUSH1 0x0 DUP1 DUP1 DUP5 PUSH1 0x1 DUP2 GT ISZERO PUSH2 0x44D JUMPI PUSH4 0x4E487B71 PUSH1 0xE0 SHL PUSH1 0x0 MSTORE PUSH1 0x21 PUSH1 0x4 MSTORE PUSH1 0x24 PUSH1 0x0 REVERT JUMPDEST EQ ISZERO PUSH2 0x48D JUMPI PUSH1 0x2 SLOAD PUSH2 0x460 SWAP1 DUP8 PUSH2 0x655 JUMP JUMPDEST PUSH1 0x2 SSTORE PUSH1 0x3 SLOAD PUSH2 0x470 SWAP1 DUP5 PUSH2 0x649 JUMP JUMPDEST PUSH1 0x3 SSTORE POP POP PUSH1 0x0 SLOAD PUSH1 0x1 SLOAD PUSH1 0x1 PUSH1 0x1 PUSH1 0xA0 SHL SUB SWAP2 DUP3 AND SWAP2 AND PUSH2 0x4C3 JUMP JUMPDEST PUSH1 0x2 SLOAD PUSH2 0x49A SWAP1 DUP5 PUSH2 0x649 JUMP JUMPDEST PUSH1 0x2 SSTORE PUSH1 0x3 SLOAD PUSH2 0x4AA SWAP1 DUP8 PUSH2 0x655 JUMP JUMPDEST PUSH1 0x3 SSTORE POP POP PUSH1 0x1 SLOAD PUSH1 0x0 SLOAD PUSH1 0x1 PUSH1 0x1 PUSH1 0xA0 SHL SUB SWAP2 DUP3 AND SWAP2 AND JUMPDEST PUSH1 0x40 MLOAD PUSH4 0xA9059CBB PUSH1 0xE0 SHL DUP2 MSTORE PUSH1 0x1 PUSH1 0x1 PUSH1 0xA0 SHL SUB DUP3 AND SWAP1 PUSH4 0xA9059CBB SWAP1 PUSH2 0x4F1 SWAP1 CALLER SWAP1 DUP8 SWAP1 PUSH1 0x4 ADD PUSH2 0x7B0 JUMP JUMPDEST PUSH1 0x20 PUSH1 0x40 MLOAD DUP1 DUP4 SUB DUP2 PUSH1 0x0 DUP8 DUP1 EXTCODESIZE ISZERO DUP1 ISZERO PUSH2 0x50B JUMPI PUSH1 0x0 DUP1 REVERT JUMPDEST POP GAS CALL ISZERO DUP1 ISZERO PUSH2 0x51F JUMPI RETURNDATASIZE PUSH1 0x0 DUP1 RETURNDATACOPY RETURNDATASIZE PUSH1 0x0 REVERT JUMPDEST POP POP POP POP PUSH1 0x40 MLOAD RETURNDATASIZE PUSH1 0x1F NOT PUSH1 0x1F DUP3 ADD AND DUP3 ADD DUP1 PUSH1 0x40 MSTORE POP DUP2 ADD SWAP1 PUSH2 0x543 SWAP2 SWAP1 PUSH2 0x719 JUMP JUMPDEST PUSH2 0x55F JUMPI PUSH1 0x40 MLOAD PUSH3 0x461BCD PUSH1 0xE5 SHL DUP2 MSTORE PUSH1 0x4 ADD PUSH2 0xB0 SWAP1 PUSH2 0x86C JUMP JUMPDEST PUSH1 0x40 MLOAD PUSH4 0x23B872DD PUSH1 0xE0 SHL DUP2 MSTORE PUSH1 0x1 PUSH1 0x1 PUSH1 0xA0 SHL SUB DUP4 AND SWAP1 PUSH4 0x23B872DD SWAP1 PUSH2 0x58F SWAP1 CALLER SWAP1 ADDRESS SWAP1 DUP12 SWAP1 PUSH1 0x4 ADD PUSH2 0x78C JUMP JUMPDEST PUSH1 0x20 PUSH1 0x40 MLOAD DUP1 DUP4 SUB DUP2 PUSH1 0x0 DUP8 DUP1 EXTCODESIZE ISZERO DUP1 ISZERO PUSH2 0x5A9 JUMPI PUSH1 0x0 DUP1 REVERT JUMPDEST POP GAS CALL ISZERO DUP1 ISZERO PUSH2 0x5BD JUMPI RETURNDATASIZE PUSH1 0x0 DUP1 RETURNDATACOPY RETURNDATASIZE PUSH1 0x0 REVERT JUMPDEST POP POP POP POP PUSH1 0x40 MLOAD RETURNDATASIZE PUSH1 0x1F NOT PUSH1 0x1F DUP3 ADD AND DUP3 ADD DUP1 PUSH1 0x40 MSTORE POP DUP2 ADD SWAP1 PUSH2 0x5E1 SWAP2 SWAP1 PUSH2 0x719 JUMP JUMPDEST PUSH2 0x5FD JUMPI PUSH1 0x40 MLOAD PUSH3 0x461BCD PUSH1 0xE5 SHL DUP2 MSTORE PUSH1 0x4 ADD PUSH2 0xB0 SWAP1 PUSH2 0x86C JUMP JUMPDEST POP POP POP POP POP POP JUMP JUMPDEST PUSH1 0x0 DUP1 PUSH2 0x61F PUSH1 0x4 SLOAD PUSH1 0x2 SLOAD PUSH2 0x70D SWAP1 SWAP2 SWAP1 PUSH4 0xFFFFFFFF AND JUMP JUMPDEST PUSH1 0x4 SLOAD PUSH1 0x3 SLOAD PUSH2 0x62E SWAP2 PUSH2 0x70D JUMP JUMPDEST SWAP2 POP SWAP2 POP SWAP1 SWAP2 JUMP JUMPDEST PUSH1 0x0 PUSH2 0x642 DUP3 DUP5 PUSH2 0x930 JUMP JUMPDEST SWAP4 SWAP3 POP POP POP JUMP JUMPDEST PUSH1 0x0 PUSH2 0x642 DUP3 DUP5 PUSH2 0x94F JUMP JUMPDEST PUSH1 0x0 PUSH2 0x642 DUP3 DUP5 PUSH2 0x8F8 JUMP JUMPDEST PUSH1 0x0 DUP1 DUP1 DUP4 PUSH1 0x1 DUP2 GT ISZERO PUSH2 0x685 JUMPI PUSH4 0x4E487B71 PUSH1 0xE0 SHL PUSH1 0x0 MSTORE PUSH1 0x21 PUSH1 0x4 MSTORE PUSH1 0x24 PUSH1 0x0 REVERT JUMPDEST EQ PUSH2 0x692 JUMPI PUSH1 0x2 SLOAD PUSH2 0x696 JUMP JUMPDEST PUSH1 0x3 SLOAD JUMPDEST SWAP1 POP PUSH1 0x0 DUP1 DUP5 PUSH1 0x1 DUP2 GT ISZERO PUSH2 0x6BB JUMPI PUSH4 0x4E487B71 PUSH1 0xE0 SHL PUSH1 0x0 MSTORE PUSH1 0x21 PUSH1 0x4 MSTORE PUSH1 0x24 PUSH1 0x0 REVERT JUMPDEST EQ PUSH2 0x6C8 JUMPI PUSH1 0x3 SLOAD PUSH2 0x6CC JUMP JUMPDEST PUSH1 0x2 SLOAD JUMPDEST SWAP1 POP PUSH1 0x0 PUSH1 0x2 SLOAD PUSH1 0x3 SLOAD PUSH2 0x6E0 SWAP2 SWAP1 PUSH2 0x930 JUMP JUMPDEST SWAP1 POP PUSH1 0x0 PUSH2 0x702 PUSH2 0x6FB PUSH2 0x6F4 DUP10 DUP7 PUSH2 0x8F8 JUMP JUMPDEST DUP5 SWAP1 PUSH2 0x70D JUMP JUMPDEST DUP6 SWAP1 PUSH2 0x649 JUMP JUMPDEST SWAP8 SWAP7 POP POP POP POP POP POP POP JUMP JUMPDEST PUSH1 0x0 PUSH2 0x642 DUP3 DUP5 PUSH2 0x910 JUMP JUMPDEST PUSH1 0x0 PUSH1 0x20 DUP3 DUP5 SUB SLT ISZERO PUSH2 0x72A JUMPI DUP1 DUP2 REVERT JUMPDEST DUP2 MLOAD DUP1 ISZERO ISZERO DUP2 EQ PUSH2 0x642 JUMPI DUP2 DUP3 REVERT JUMPDEST PUSH1 0x0 PUSH1 0x20 DUP3 DUP5 SUB SLT ISZERO PUSH2 0x74A JUMPI DUP1 DUP2 REVERT JUMPDEST POP CALLDATALOAD SWAP2 SWAP1 POP JUMP JUMPDEST PUSH1 0x0 DUP1 PUSH1 0x0 PUSH1 0x60 DUP5 DUP7 SUB SLT ISZERO PUSH2 0x765 JUMPI DUP2 DUP3 REVERT JUMPDEST DUP4 CALLDATALOAD SWAP3 POP PUSH1 0x20 DUP5 ADD CALLDATALOAD SWAP2 POP PUSH1 0x40 DUP5 ADD CALLDATALOAD PUSH1 0x2 DUP2 LT PUSH2 0x781 JUMPI DUP2 DUP3 REVERT JUMPDEST DUP1 SWAP2 POP POP SWAP3 POP SWAP3 POP SWAP3 JUMP JUMPDEST PUSH1 0x1 PUSH1 0x1 PUSH1 0xA0 SHL SUB SWAP4 DUP5 AND DUP2 MSTORE SWAP2 SWAP1 SWAP3 AND PUSH1 0x20 DUP3 ADD MSTORE PUSH1 0x40 DUP2 ADD SWAP2 SWAP1 SWAP2 MSTORE PUSH1 0x60 ADD SWAP1 JUMP JUMPDEST PUSH1 0x1 PUSH1 0x1 PUSH1 0xA0 SHL SUB SWAP3 SWAP1 SWAP3 AND DUP3 MSTORE PUSH1 0x20 DUP3 ADD MSTORE PUSH1 0x40 ADD SWAP1 JUMP JUMPDEST PUSH1 0x20 DUP1 DUP3 MSTORE PUSH1 0x18 SWAP1 DUP3 ADD MSTORE PUSH32 0x5553444320616D6F756E7420756E617661696C61626C652E0000000000000000 PUSH1 0x40 DUP3 ADD MSTORE PUSH1 0x60 ADD SWAP1 JUMP JUMPDEST PUSH1 0x20 DUP1 DUP3 MSTORE PUSH1 0x18 SWAP1 DUP3 ADD MSTORE PUSH32 0x4C696E6B20616D6F756E7420756E617661696C61626C652E0000000000000000 PUSH1 0x40 DUP3 ADD MSTORE PUSH1 0x60 ADD SWAP1 JUMP JUMPDEST PUSH1 0x20 DUP1 DUP3 MSTORE DUP2 DUP2 ADD MSTORE PUSH32 0x596F7520646F6E2774206861766520656E6F756768204C5020746F6B656E732E PUSH1 0x40 DUP3 ADD MSTORE PUSH1 0x60 ADD SWAP1 JUMP JUMPDEST PUSH1 0x20 DUP1 DUP3 MSTORE PUSH1 0x19 SWAP1 DUP3 ADD MSTORE PUSH32 0x546F6B656E20616D6F756E7420756E617661696C61626C652E00000000000000 PUSH1 0x40 DUP3 ADD MSTORE PUSH1 0x60 ADD SWAP1 JUMP JUMPDEST PUSH1 0x20 DUP1 DUP3 MSTORE PUSH1 0x35 SWAP1 DUP3 ADD MSTORE PUSH32 0x54686520616D6F756E74206F662070757263686173656420746F6B656E206973 PUSH1 0x40 DUP3 ADD MSTORE PUSH21 0x103637BBB2B9103A3430B7103932B8BAB4B932B217 PUSH1 0x59 SHL PUSH1 0x60 DUP3 ADD MSTORE PUSH1 0x80 ADD SWAP1 JUMP JUMPDEST PUSH1 0x0 DUP3 NOT DUP3 GT ISZERO PUSH2 0x90B JUMPI PUSH2 0x90B PUSH2 0x966 JUMP JUMPDEST POP ADD SWAP1 JUMP JUMPDEST PUSH1 0x0 DUP3 PUSH2 0x92B JUMPI PUSH4 0x4E487B71 PUSH1 0xE0 SHL DUP2 MSTORE PUSH1 0x12 PUSH1 0x4 MSTORE PUSH1 0x24 DUP2 REVERT JUMPDEST POP DIV SWAP1 JUMP JUMPDEST PUSH1 0x0 DUP2 PUSH1 0x0 NOT DIV DUP4 GT DUP3 ISZERO ISZERO AND ISZERO PUSH2 0x94A JUMPI PUSH2 0x94A PUSH2 0x966 JUMP JUMPDEST POP MUL SWAP1 JUMP JUMPDEST PUSH1 0x0 DUP3 DUP3 LT ISZERO PUSH2 0x961 JUMPI PUSH2 0x961 PUSH2 0x966 JUMP JUMPDEST POP SUB SWAP1 JUMP JUMPDEST PUSH4 0x4E487B71 PUSH1 0xE0 SHL PUSH1 0x0 MSTORE PUSH1 0x11 PUSH1 0x4 MSTORE PUSH1 0x24 PUSH1 0x0 REVERT INVALID LOG2 PUSH5 0x6970667358 0x22 SLT KECCAK256 SELFDESTRUCT GASLIMIT 0xFC 0x48 SWAP9 0xCE DUP1 0x22 0xB7 MSTORE ORIGIN PUSH22 0xB89C01398DED97A595916749ED5E353960D0CC506473 PUSH16 0x6C634300080000330000000000000000 ","sha1":"96b006626386c560f2445759da9704022e051d53","source":"// SPDX-License-Identifier: UNLICENSED\n\npragma solidity ^0.8.0;\n\nimport \"@openzeppelin/contracts/utils/math/SafeMath.sol\";\n\n\ninterface IERC20 {\n    function transfer(address recipient, uint256 amount) external returns (bool);\n    function transferFrom(address sender, address recipient, uint256 amount) external returns (bool);\n}\n\n\ncontract SimpleSwap{\n    using SafeMath for uint256;\n\n    enum Tokens{Link, USDC}\n\n    address addressLink = 0xa36085F69e2889c224210F603D836748e7dC0088;   //Kovan address      //0x01BE23585060835E02B77ef475b0Cc51aA1e0709; rinkeby\n    address addressUSDC = 0xb7a4F3E9097C08dA09517b5aB877F7a917224ede;    //Kovan address            //0xeb8f08a975Ab53E34D8a0330E0D34de942C95926; rinkeby\n\n    uint256 totalAvailableLink = 0;\n    uint256 totalAvailableUSDC = 0;\n\n    uint256 totalLpTokens = 0;\n\n    mapping(address => uint256) userToAmountLpTokens;\n\n    // Basic check: Done\n    function swap(uint256 quantitySoldToken, uint256 minAmountPurchasedToken, Tokens tokenForSale) public {\n        uint256 amountPurchasedToken = getAmountPurchasedToken(quantitySoldToken, tokenForSale);\n        require(amountPurchasedToken >= minAmountPurchasedToken, \"The amount of purchased token is lower than required.\");\n\n        IERC20 soldToken;\n        IERC20 boughtToken;\n\n        if (tokenForSale == Tokens.Link) {\n            totalAvailableLink  = totalAvailableLink.add(quantitySoldToken);\n            totalAvailableUSDC = totalAvailableUSDC.sub(amountPurchasedToken);\n\n            soldToken = IERC20(addressLink);\n            boughtToken = IERC20(addressUSDC);\n        }\n\n        else {\n            totalAvailableLink = totalAvailableLink.sub(amountPurchasedToken);\n            totalAvailableUSDC = totalAvailableUSDC.add(quantitySoldToken);\n\n            soldToken = IERC20(addressUSDC); \n            boughtToken = IERC20(addressLink);\n        }\n        \n        require(boughtToken.transfer(msg.sender, amountPurchasedToken), \"Token amount unavailable.\");\n        require(soldToken.transferFrom(msg.sender, address(this), quantitySoldToken), \"Token amount unavailable.\");\n\n    }\n\n\n    // Basic check: Done\n    function supply(uint256 amountLpTokens) public {\n        (uint256 amountLinkPerLpToken, uint256 amountUsdcPerLpToken) = getLpTokenPrice();\n\n        IERC20 Link = IERC20(addressLink);\n        IERC20 USDC = IERC20(addressUSDC);\n\n        uint256 amountLinkToSupply = amountLinkPerLpToken.mul(amountLpTokens);\n        uint256 amountUSDCToSupply = amountUsdcPerLpToken.mul(amountLpTokens);\n\n        totalAvailableLink = totalAvailableLink.add(amountLinkToSupply);\n        totalAvailableUSDC = totalAvailableUSDC.add(amountUSDCToSupply);\n\n        totalLpTokens = totalLpTokens.add(amountLpTokens);\n\n        userToAmountLpTokens[msg.sender] = userToAmountLpTokens[msg.sender].add(amountLpTokens);\n\n        require(Link.transferFrom(msg.sender, address(this), amountLinkToSupply), \"Link amount unavailable.\");\n        require(USDC.transferFrom(msg.sender, address(this), amountUSDCToSupply), \"USDC amount unavailable.\");\n    }\n\n\n    // Basic check: Done\n    function withdraw(uint256 amountLpTokens) public {\n        require(userToAmountLpTokens[msg.sender] >= amountLpTokens, \"You don't have enough LP tokens.\");\n        (uint256 amountLinkPerLpToken, uint256 amountUSDCPerLpToken)  = getLpTokenPrice();\n\n        uint256 amountLinkToWithdraw = amountLinkPerLpToken.mul(amountLpTokens);\n        uint256 amountUSDCToWithdraw = amountUSDCPerLpToken.mul(amountLpTokens);\n\n        totalAvailableLink = totalAvailableLink.sub(amountLinkToWithdraw);\n        totalAvailableUSDC = totalAvailableUSDC.sub(amountUSDCToWithdraw);\n\n        totalLpTokens = totalLpTokens.sub(amountLpTokens);\n\n        userToAmountLpTokens[msg.sender] = userToAmountLpTokens[msg.sender].sub(amountLpTokens);\n\n        IERC20 Link = IERC20(addressLink);\n        IERC20 USDC = IERC20(addressUSDC);\n\n        require(Link.transfer(msg.sender, amountLinkToWithdraw), \"Link amount unavailable.\");\n        require(USDC.transfer(msg.sender, amountUSDCToWithdraw), \"USDC amount unavailable.\");\n\n    }\n\n\n\n//////////////////////////////////////////////////////////////////////////////////////////////////////////////////////////////////////////////////\n    // Link - USDC                      // 18 decimals\n    function getAmountPurchasedToken(uint256 amount, Tokens tokenForSale) internal view returns(uint256)\n    {\n        uint256 y = (tokenForSale == Tokens.Link) ? totalAvailableUSDC : totalAvailableLink;\n        uint256 x = (tokenForSale == Tokens.Link) ? totalAvailableLink : totalAvailableUSDC;\n\n        uint256 C = totalAvailableUSDC * totalAvailableLink;         // 36 decimals\n        uint256 amountPurchasedTokens = y.sub(C.div(x + amount)); \n\n        return amountPurchasedTokens;\n    }\n\n\n\n    function getLpTokenPrice() internal view returns(uint256, uint256) \n    {\n        return (totalAvailableLink.div(totalLpTokens), totalAvailableUSDC.div(totalLpTokens));\n    }\n\n\n}\n\n\n","sourcePath":"contracts/SimpleSwap.sol","type":"contract","deployment":{"address":"0xD04404A8Ff64cA9FEc94ce2351D85fA461387192","chainid":"42","blockHeight":32087269}}